{
  "_format": "hh-sol-artifact-1",
  "contractName": "TripNFT",
  "sourceName": "contracts/TripNFT.sol",
  "abi": [
    {
      "inputs": [],
      "stateMutability": "nonpayable",
      "type": "constructor"
    },
    {
      "anonymous": false,
      "inputs": [
        {
          "indexed": true,
          "internalType": "address",
          "name": "owner",
          "type": "address"
        },
        {
          "indexed": true,
          "internalType": "address",
          "name": "approved",
          "type": "address"
        },
        {
          "indexed": true,
          "internalType": "uint256",
          "name": "tokenId",
          "type": "uint256"
        }
      ],
      "name": "Approval",
      "type": "event"
    },
    {
      "anonymous": false,
      "inputs": [
        {
          "indexed": true,
          "internalType": "address",
          "name": "owner",
          "type": "address"
        },
        {
          "indexed": true,
          "internalType": "address",
          "name": "operator",
          "type": "address"
        },
        {
          "indexed": false,
          "internalType": "bool",
          "name": "approved",
          "type": "bool"
        }
      ],
      "name": "ApprovalForAll",
      "type": "event"
    },
    {
      "anonymous": false,
      "inputs": [
        {
          "indexed": true,
          "internalType": "address",
          "name": "previousOwner",
          "type": "address"
        },
        {
          "indexed": true,
          "internalType": "address",
          "name": "newOwner",
          "type": "address"
        }
      ],
      "name": "OwnershipTransferred",
      "type": "event"
    },
    {
      "anonymous": false,
      "inputs": [
        {
          "indexed": true,
          "internalType": "address",
          "name": "from",
          "type": "address"
        },
        {
          "indexed": true,
          "internalType": "address",
          "name": "to",
          "type": "address"
        },
        {
          "indexed": true,
          "internalType": "uint256",
          "name": "tokenId",
          "type": "uint256"
        }
      ],
      "name": "Transfer",
      "type": "event"
    },
    {
      "stateMutability": "payable",
      "type": "fallback"
    },
    {
      "inputs": [],
      "name": "Hash_Array",
      "outputs": [
        {
          "internalType": "uint256",
          "name": "",
          "type": "uint256"
        }
      ],
      "stateMutability": "view",
      "type": "function"
    },
    {
      "inputs": [],
      "name": "MAX_SUPPLY",
      "outputs": [
        {
          "internalType": "uint256",
          "name": "",
          "type": "uint256"
        }
      ],
      "stateMutability": "view",
      "type": "function"
    },
    {
      "inputs": [],
      "name": "_isSaleActive",
      "outputs": [
        {
          "internalType": "bool",
          "name": "",
          "type": "bool"
        }
      ],
      "stateMutability": "view",
      "type": "function"
    },
    {
      "inputs": [],
      "name": "_revealed",
      "outputs": [
        {
          "internalType": "bool",
          "name": "",
          "type": "bool"
        }
      ],
      "stateMutability": "view",
      "type": "function"
    },
    {
      "inputs": [
        {
          "internalType": "address",
          "name": "to",
          "type": "address"
        },
        {
          "internalType": "uint256",
          "name": "tokenId",
          "type": "uint256"
        }
      ],
      "name": "approve",
      "outputs": [],
      "stateMutability": "nonpayable",
      "type": "function"
    },
    {
      "inputs": [
        {
          "internalType": "address",
          "name": "owner",
          "type": "address"
        }
      ],
      "name": "balanceOf",
      "outputs": [
        {
          "internalType": "uint256",
          "name": "",
          "type": "uint256"
        }
      ],
      "stateMutability": "view",
      "type": "function"
    },
    {
      "inputs": [],
      "name": "baseExtension",
      "outputs": [
        {
          "internalType": "string",
          "name": "",
          "type": "string"
        }
      ],
      "stateMutability": "view",
      "type": "function"
    },
    {
      "inputs": [],
      "name": "baseURI",
      "outputs": [
        {
          "internalType": "string",
          "name": "",
          "type": "string"
        }
      ],
      "stateMutability": "view",
      "type": "function"
    },
    {
      "inputs": [],
      "name": "flipReveal",
      "outputs": [],
      "stateMutability": "nonpayable",
      "type": "function"
    },
    {
      "inputs": [],
      "name": "flipSaleActive",
      "outputs": [],
      "stateMutability": "nonpayable",
      "type": "function"
    },
    {
      "inputs": [
        {
          "internalType": "uint256",
          "name": "tokenId",
          "type": "uint256"
        }
      ],
      "name": "getApproved",
      "outputs": [
        {
          "internalType": "address",
          "name": "",
          "type": "address"
        }
      ],
      "stateMutability": "view",
      "type": "function"
    },
    {
      "inputs": [],
      "name": "getMyBaseUrl",
      "outputs": [
        {
          "internalType": "string",
          "name": "",
          "type": "string"
        }
      ],
      "stateMutability": "view",
      "type": "function"
    },
    {
      "inputs": [],
      "name": "getMyNotRevealedUri",
      "outputs": [
        {
          "internalType": "string",
          "name": "",
          "type": "string"
        }
      ],
      "stateMutability": "view",
      "type": "function"
    },
    {
      "inputs": [
        {
          "internalType": "address",
          "name": "owner",
          "type": "address"
        },
        {
          "internalType": "address",
          "name": "operator",
          "type": "address"
        }
      ],
      "name": "isApprovedForAll",
      "outputs": [
        {
          "internalType": "bool",
          "name": "",
          "type": "bool"
        }
      ],
      "stateMutability": "view",
      "type": "function"
    },
    {
      "inputs": [],
      "name": "maxBalance",
      "outputs": [
        {
          "internalType": "uint256",
          "name": "",
          "type": "uint256"
        }
      ],
      "stateMutability": "view",
      "type": "function"
    },
    {
      "inputs": [],
      "name": "maxMint",
      "outputs": [
        {
          "internalType": "uint256",
          "name": "",
          "type": "uint256"
        }
      ],
      "stateMutability": "view",
      "type": "function"
    },
    {
      "inputs": [
        {
          "internalType": "uint256",
          "name": "tokenQuantity",
          "type": "uint256"
        },
        {
          "internalType": "address",
          "name": "recipient",
          "type": "address"
        }
      ],
      "name": "mintNft",
      "outputs": [],
      "stateMutability": "payable",
      "type": "function"
    },
    {
      "inputs": [],
      "name": "mintPrice",
      "outputs": [
        {
          "internalType": "uint256",
          "name": "",
          "type": "uint256"
        }
      ],
      "stateMutability": "view",
      "type": "function"
    },
    {
      "inputs": [],
      "name": "name",
      "outputs": [
        {
          "internalType": "string",
          "name": "",
          "type": "string"
        }
      ],
      "stateMutability": "view",
      "type": "function"
    },
    {
      "inputs": [],
      "name": "notRevealedUri",
      "outputs": [
        {
          "internalType": "string",
          "name": "",
          "type": "string"
        }
      ],
      "stateMutability": "view",
      "type": "function"
    },
    {
      "inputs": [],
      "name": "owner",
      "outputs": [
        {
          "internalType": "address",
          "name": "",
          "type": "address"
        }
      ],
      "stateMutability": "view",
      "type": "function"
    },
    {
      "inputs": [
        {
          "internalType": "uint256",
          "name": "tokenId",
          "type": "uint256"
        }
      ],
      "name": "ownerOf",
      "outputs": [
        {
          "internalType": "address",
          "name": "",
          "type": "address"
        }
      ],
      "stateMutability": "view",
      "type": "function"
    },
    {
      "inputs": [],
      "name": "renounceOwnership",
      "outputs": [],
      "stateMutability": "nonpayable",
      "type": "function"
    },
    {
      "inputs": [
        {
          "internalType": "address",
          "name": "from",
          "type": "address"
        },
        {
          "internalType": "address",
          "name": "to",
          "type": "address"
        },
        {
          "internalType": "uint256",
          "name": "tokenId",
          "type": "uint256"
        }
      ],
      "name": "safeTransferFrom",
      "outputs": [],
      "stateMutability": "nonpayable",
      "type": "function"
    },
    {
      "inputs": [
        {
          "internalType": "address",
          "name": "from",
          "type": "address"
        },
        {
          "internalType": "address",
          "name": "to",
          "type": "address"
        },
        {
          "internalType": "uint256",
          "name": "tokenId",
          "type": "uint256"
        },
        {
          "internalType": "bytes",
          "name": "data",
          "type": "bytes"
        }
      ],
      "name": "safeTransferFrom",
      "outputs": [],
      "stateMutability": "nonpayable",
      "type": "function"
    },
    {
      "inputs": [
        {
          "internalType": "address",
          "name": "operator",
          "type": "address"
        },
        {
          "internalType": "bool",
          "name": "approved",
          "type": "bool"
        }
      ],
      "name": "setApprovalForAll",
      "outputs": [],
      "stateMutability": "nonpayable",
      "type": "function"
    },
    {
      "inputs": [
        {
          "internalType": "string",
          "name": "_newBaseExtension",
          "type": "string"
        }
      ],
      "name": "setBaseExtension",
      "outputs": [],
      "stateMutability": "nonpayable",
      "type": "function"
    },
    {
      "inputs": [
        {
          "internalType": "string",
          "name": "_newBaseURI",
          "type": "string"
        }
      ],
      "name": "setBaseURI",
      "outputs": [],
      "stateMutability": "nonpayable",
      "type": "function"
    },
    {
      "inputs": [
        {
          "internalType": "uint256",
          "name": "_maxBalance",
          "type": "uint256"
        }
      ],
      "name": "setMaxBalance",
      "outputs": [],
      "stateMutability": "nonpayable",
      "type": "function"
    },
    {
      "inputs": [
        {
          "internalType": "uint256",
          "name": "_maxMint",
          "type": "uint256"
        }
      ],
      "name": "setMaxMint",
      "outputs": [],
      "stateMutability": "nonpayable",
      "type": "function"
    },
    {
      "inputs": [
        {
          "internalType": "uint256",
          "name": "_mintPrice",
          "type": "uint256"
        }
      ],
      "name": "setMintPrice",
      "outputs": [],
      "stateMutability": "nonpayable",
      "type": "function"
    },
    {
      "inputs": [
        {
          "internalType": "string",
          "name": "_notRevealedURI",
          "type": "string"
        }
      ],
      "name": "setNotRevealedURI",
      "outputs": [],
      "stateMutability": "nonpayable",
      "type": "function"
    },
    {
      "inputs": [
        {
          "internalType": "bytes4",
          "name": "interfaceId",
          "type": "bytes4"
        }
      ],
      "name": "supportsInterface",
      "outputs": [
        {
          "internalType": "bool",
          "name": "",
          "type": "bool"
        }
      ],
      "stateMutability": "view",
      "type": "function"
    },
    {
      "inputs": [],
      "name": "symbol",
      "outputs": [
        {
          "internalType": "string",
          "name": "",
          "type": "string"
        }
      ],
      "stateMutability": "view",
      "type": "function"
    },
    {
      "inputs": [
        {
          "internalType": "uint256",
          "name": "index",
          "type": "uint256"
        }
      ],
      "name": "tokenByIndex",
      "outputs": [
        {
          "internalType": "uint256",
          "name": "",
          "type": "uint256"
        }
      ],
      "stateMutability": "view",
      "type": "function"
    },
    {
      "inputs": [
        {
          "internalType": "address",
          "name": "owner",
          "type": "address"
        },
        {
          "internalType": "uint256",
          "name": "index",
          "type": "uint256"
        }
      ],
      "name": "tokenOfOwnerByIndex",
      "outputs": [
        {
          "internalType": "uint256",
          "name": "",
          "type": "uint256"
        }
      ],
      "stateMutability": "view",
      "type": "function"
    },
    {
      "inputs": [
        {
          "internalType": "uint256",
          "name": "tokenId",
          "type": "uint256"
        }
      ],
      "name": "tokenURI",
      "outputs": [
        {
          "internalType": "string",
          "name": "",
          "type": "string"
        }
      ],
      "stateMutability": "view",
      "type": "function"
    },
    {
      "inputs": [],
      "name": "totalSupply",
      "outputs": [
        {
          "internalType": "uint256",
          "name": "",
          "type": "uint256"
        }
      ],
      "stateMutability": "view",
      "type": "function"
    },
    {
      "inputs": [
        {
          "internalType": "address",
          "name": "from",
          "type": "address"
        },
        {
          "internalType": "address",
          "name": "to",
          "type": "address"
        },
        {
          "internalType": "uint256",
          "name": "tokenId",
          "type": "uint256"
        }
      ],
      "name": "transferFrom",
      "outputs": [],
      "stateMutability": "nonpayable",
      "type": "function"
    },
    {
      "inputs": [
        {
          "internalType": "address",
          "name": "newOwner",
          "type": "address"
        }
      ],
      "name": "transferOwnership",
      "outputs": [],
      "stateMutability": "nonpayable",
      "type": "function"
    },
    {
      "inputs": [
        {
          "internalType": "address",
          "name": "to",
          "type": "address"
        }
      ],
      "name": "withdraw",
      "outputs": [],
      "stateMutability": "nonpayable",
      "type": "function"
    },
    {
      "stateMutability": "payable",
      "type": "receive"
    }
  ],
  "bytecode": "0x60806040526001600b60006101000a81548160ff0219169083151502179055506000600b60016101000a81548160ff0219169083151502179055506000600c556005600d556001600e5560405180602001604052806000815250600f90805190602001906200007092919062000296565b5060405180606001604052806035815260200162004a546035913960109080519060200190620000a292919062000296565b506040518060400160405280600581526020017f2e6a736f6e00000000000000000000000000000000000000000000000000000081525060119080519060200190620000f092919062000296565b5060646013553480156200010357600080fd5b506040518060400160405280600c81526020017f547269704d616769634e465400000000000000000000000000000000000000008152506040518060400160405280600381526020017f544d4e00000000000000000000000000000000000000000000000000000000008152506200019062000184620001ca60201b60201c565b620001d260201b60201c565b8160019080519060200190620001a892919062000296565b508060029080519060200190620001c192919062000296565b505050620003ab565b600033905090565b60008060009054906101000a900473ffffffffffffffffffffffffffffffffffffffff169050816000806101000a81548173ffffffffffffffffffffffffffffffffffffffff021916908373ffffffffffffffffffffffffffffffffffffffff1602179055508173ffffffffffffffffffffffffffffffffffffffff168173ffffffffffffffffffffffffffffffffffffffff167f8be0079c531659141344cd1fd0a4f28419497f9722a3daafe3b4186f6b6457e060405160405180910390a35050565b828054620002a49062000375565b90600052602060002090601f016020900481019282620002c8576000855562000314565b82601f10620002e357805160ff191683800117855562000314565b8280016001018555821562000314579182015b8281111562000313578251825591602001919060010190620002f6565b5b50905062000323919062000327565b5090565b5b808211156200034257600081600090555060010162000328565b5090565b7f4e487b7100000000000000000000000000000000000000000000000000000000600052602260045260246000fd5b600060028204905060018216806200038e57607f821691505b60208210811415620003a557620003a462000346565b5b50919050565b61469980620003bb6000396000f3fe60806040526004361061024a5760003560e01c80636c0360eb11610139578063a22a420d116100b6578063da3ef23f1161007a578063da3ef23f14610869578063de8b51e114610892578063e985e9c5146108a9578063f2c4ce1e146108e6578063f2fde38b1461090f578063f4a0a5281461093857610251565b8063a22a420d14610793578063a22cb465146107af578063b88d4fde146107d8578063c668286214610801578063c87b56dd1461082c57610251565b806373ad468a116100fd57806373ad468a146106be5780637501f741146106e95780638da5cb5b1461071457806395d89b411461073f5780639d51d9b71461076a57610251565b80636c0360eb146105e95780636ebeac85146106145780637080d6fc1461063f57806370a082311461066a578063715018a6146106a757610251565b80633b84d9c6116101c7578063547520fe1161018b578063547520fe1461050457806355f804b31461052d5780636352211e146105565780636817c76c146105935780636b68a247146105be57610251565b80633b84d9c61461043357806342842e0e1461044a578063446bc5e0146104735780634f6ccce71461049e57806351cff8d9146104db57610251565b806318160ddd1161020e57806318160ddd1461034c578063218b1ef01461037757806323b872dd146103a25780632f745c59146103cb57806332cb6b0c1461040857610251565b806301ffc9a71461025357806306fdde0314610290578063081812fc146102bb578063081c8c44146102f8578063095ea7b31461032357610251565b3661025157005b005b34801561025f57600080fd5b5061027a60048036038101906102759190612f36565b610961565b6040516102879190612f7e565b60405180910390f35b34801561029c57600080fd5b506102a56109db565b6040516102b29190613032565b60405180910390f35b3480156102c757600080fd5b506102e260048036038101906102dd919061308a565b610a6d565b6040516102ef91906130f8565b60405180910390f35b34801561030457600080fd5b5061030d610ab3565b60405161031a9190613032565b60405180910390f35b34801561032f57600080fd5b5061034a6004803603810190610345919061313f565b610b41565b005b34801561035857600080fd5b50610361610c59565b60405161036e919061318e565b60405180910390f35b34801561038357600080fd5b5061038c610c66565b6040516103999190613032565b60405180910390f35b3480156103ae57600080fd5b506103c960048036038101906103c491906131a9565b610cf8565b005b3480156103d757600080fd5b506103f260048036038101906103ed919061313f565b610d58565b6040516103ff919061318e565b60405180910390f35b34801561041457600080fd5b5061041d610dfd565b60405161042a919061318e565b60405180910390f35b34801561043f57600080fd5b50610448610e02565b005b34801561045657600080fd5b50610471600480360381019061046c91906131a9565b610e36565b005b34801561047f57600080fd5b50610488610e56565b604051610495919061318e565b60405180910390f35b3480156104aa57600080fd5b506104c560048036038101906104c0919061308a565b610e5c565b6040516104d2919061318e565b60405180910390f35b3480156104e757600080fd5b5061050260048036038101906104fd91906131fc565b610ecd565b005b34801561051057600080fd5b5061052b6004803603810190610526919061308a565b610f25565b005b34801561053957600080fd5b50610554600480360381019061054f919061335e565b610f37565b005b34801561056257600080fd5b5061057d6004803603810190610578919061308a565b610f59565b60405161058a91906130f8565b60405180910390f35b34801561059f57600080fd5b506105a8610fe0565b6040516105b5919061318e565b60405180910390f35b3480156105ca57600080fd5b506105d3610fe6565b6040516105e09190613032565b60405180910390f35b3480156105f557600080fd5b506105fe611078565b60405161060b9190613032565b60405180910390f35b34801561062057600080fd5b50610629611106565b6040516106369190612f7e565b60405180910390f35b34801561064b57600080fd5b50610654611119565b6040516106619190612f7e565b60405180910390f35b34801561067657600080fd5b50610691600480360381019061068c91906131fc565b61112c565b60405161069e919061318e565b60405180910390f35b3480156106b357600080fd5b506106bc6111e4565b005b3480156106ca57600080fd5b506106d36111f8565b6040516106e0919061318e565b60405180910390f35b3480156106f557600080fd5b506106fe6111fe565b60405161070b919061318e565b60405180910390f35b34801561072057600080fd5b50610729611204565b60405161073691906130f8565b60405180910390f35b34801561074b57600080fd5b5061075461122d565b6040516107619190613032565b60405180910390f35b34801561077657600080fd5b50610791600480360381019061078c919061308a565b6112bf565b005b6107ad60048036038101906107a891906133a7565b6112d1565b005b3480156107bb57600080fd5b506107d660048036038101906107d19190613413565b611471565b005b3480156107e457600080fd5b506107ff60048036038101906107fa91906134f4565b611487565b005b34801561080d57600080fd5b506108166114e9565b6040516108239190613032565b60405180910390f35b34801561083857600080fd5b50610853600480360381019061084e919061308a565b611577565b6040516108609190613032565b60405180910390f35b34801561087557600080fd5b50610890600480360381019061088b919061335e565b611719565b005b34801561089e57600080fd5b506108a761173b565b005b3480156108b557600080fd5b506108d060048036038101906108cb9190613577565b61176f565b6040516108dd9190612f7e565b60405180910390f35b3480156108f257600080fd5b5061090d6004803603810190610908919061335e565b611803565b005b34801561091b57600080fd5b50610936600480360381019061093191906131fc565b611825565b005b34801561094457600080fd5b5061095f600480360381019061095a919061308a565b6118a9565b005b60007f780e9d63000000000000000000000000000000000000000000000000000000007bffffffffffffffffffffffffffffffffffffffffffffffffffffffff1916827bffffffffffffffffffffffffffffffffffffffffffffffffffffffff191614806109d457506109d3826118bb565b5b9050919050565b6060600180546109ea906135e6565b80601f0160208091040260200160405190810160405280929190818152602001828054610a16906135e6565b8015610a635780601f10610a3857610100808354040283529160200191610a63565b820191906000526020600020905b815481529060010190602001808311610a4657829003601f168201915b5050505050905090565b6000610a788261199d565b6005600083815260200190815260200160002060009054906101000a900473ffffffffffffffffffffffffffffffffffffffff169050919050565b60108054610ac0906135e6565b80601f0160208091040260200160405190810160405280929190818152602001828054610aec906135e6565b8015610b395780601f10610b0e57610100808354040283529160200191610b39565b820191906000526020600020905b815481529060010190602001808311610b1c57829003601f168201915b505050505081565b6000610b4c82610f59565b90508073ffffffffffffffffffffffffffffffffffffffff168373ffffffffffffffffffffffffffffffffffffffff161415610bbd576040517f08c379a0000000000000000000000000000000000000000000000000000000008152600401610bb49061368a565b60405180910390fd5b8073ffffffffffffffffffffffffffffffffffffffff16610bdc6119e8565b73ffffffffffffffffffffffffffffffffffffffff161480610c0b5750610c0a81610c056119e8565b61176f565b5b610c4a576040517f08c379a0000000000000000000000000000000000000000000000000000000008152600401610c419061371c565b60405180910390fd5b610c5483836119f0565b505050565b6000600980549050905090565b606060108054610c75906135e6565b80601f0160208091040260200160405190810160405280929190818152602001828054610ca1906135e6565b8015610cee5780601f10610cc357610100808354040283529160200191610cee565b820191906000526020600020905b815481529060010190602001808311610cd157829003601f168201915b5050505050905090565b610d09610d036119e8565b82611aa9565b610d48576040517f08c379a0000000000000000000000000000000000000000000000000000000008152600401610d3f906137ae565b60405180910390fd5b610d53838383611b3e565b505050565b6000610d638361112c565b8210610da4576040517f08c379a0000000000000000000000000000000000000000000000000000000008152600401610d9b90613840565b60405180910390fd5b600760008473ffffffffffffffffffffffffffffffffffffffff1673ffffffffffffffffffffffffffffffffffffffff168152602001908152602001600020600083815260200190815260200160002054905092915050565b603281565b610e0a611e34565b600b60019054906101000a900460ff1615600b60016101000a81548160ff021916908315150217905550565b610e5183838360405180602001604052806000815250611487565b505050565b60135481565b6000610e66610c59565b8210610ea7576040517f08c379a0000000000000000000000000000000000000000000000000000000008152600401610e9e906138d2565b60405180910390fd5b60098281548110610ebb57610eba6138f2565b5b90600052602060002001549050919050565b610ed5611e34565b60004790508173ffffffffffffffffffffffffffffffffffffffff166108fc829081150290604051600060405180830381858888f19350505050158015610f20573d6000803e3d6000fd5b505050565b610f2d611e34565b80600e8190555050565b610f3f611e34565b80600f9080519060200190610f55929190612e27565b5050565b600080610f6583611eb2565b9050600073ffffffffffffffffffffffffffffffffffffffff168173ffffffffffffffffffffffffffffffffffffffff161415610fd7576040517f08c379a0000000000000000000000000000000000000000000000000000000008152600401610fce9061396d565b60405180910390fd5b80915050919050565b600c5481565b6060600f8054610ff5906135e6565b80601f0160208091040260200160405190810160405280929190818152602001828054611021906135e6565b801561106e5780601f106110435761010080835404028352916020019161106e565b820191906000526020600020905b81548152906001019060200180831161105157829003601f168201915b5050505050905090565b600f8054611085906135e6565b80601f01602080910402602001604051908101604052809291908181526020018280546110b1906135e6565b80156110fe5780601f106110d3576101008083540402835291602001916110fe565b820191906000526020600020905b8154815290600101906020018083116110e157829003601f168201915b505050505081565b600b60019054906101000a900460ff1681565b600b60009054906101000a900460ff1681565b60008073ffffffffffffffffffffffffffffffffffffffff168273ffffffffffffffffffffffffffffffffffffffff16141561119d576040517f08c379a0000000000000000000000000000000000000000000000000000000008152600401611194906139ff565b60405180910390fd5b600460008373ffffffffffffffffffffffffffffffffffffffff1673ffffffffffffffffffffffffffffffffffffffff168152602001908152602001600020549050919050565b6111ec611e34565b6111f66000611eef565b565b600d5481565b600e5481565b60008060009054906101000a900473ffffffffffffffffffffffffffffffffffffffff16905090565b60606002805461123c906135e6565b80601f0160208091040260200160405190810160405280929190818152602001828054611268906135e6565b80156112b55780601f1061128a576101008083540402835291602001916112b5565b820191906000526020600020905b81548152906001019060200180831161129857829003601f168201915b5050505050905090565b6112c7611e34565b80600d8190555050565b6032826112dc610c59565b6112e69190613a4e565b1115611327576040517f08c379a000000000000000000000000000000000000000000000000000000000815260040161131e90613af0565b60405180910390fd5b600b60009054906101000a900460ff16611376576040517f08c379a000000000000000000000000000000000000000000000000000000000815260040161136d90613b82565b60405180910390fd5b600d54826113833361112c565b61138d9190613a4e565b11156113ce576040517f08c379a00000000000000000000000000000000000000000000000000000000081526004016113c590613bee565b60405180910390fd5b34600c54836113dd9190613c0e565b111561141e576040517f08c379a000000000000000000000000000000000000000000000000000000000815260040161141590613cb4565b60405180910390fd5b600e54821115611463576040517f08c379a000000000000000000000000000000000000000000000000000000000815260040161145a90613d20565b60405180910390fd5b61146d8282611fb3565b5050565b61148361147c6119e8565b8383612351565b5050565b6114986114926119e8565b83611aa9565b6114d7576040517f08c379a00000000000000000000000000000000000000000000000000000000081526004016114ce906137ae565b60405180910390fd5b6114e3848484846124be565b50505050565b601180546114f6906135e6565b80601f0160208091040260200160405190810160405280929190818152602001828054611522906135e6565b801561156f5780601f106115445761010080835404028352916020019161156f565b820191906000526020600020905b81548152906001019060200180831161155257829003601f168201915b505050505081565b60606115828261251a565b6115c1576040517f08c379a00000000000000000000000000000000000000000000000000000000081526004016115b890613db2565b60405180910390fd5b60001515600b60019054906101000a900460ff161515141561166f57601080546115ea906135e6565b80601f0160208091040260200160405190810160405280929190818152602001828054611616906135e6565b80156116635780601f1061163857610100808354040283529160200191611663565b820191906000526020600020905b81548152906001019060200180831161164657829003601f168201915b50505050509050611714565b600060126000848152602001908152602001600020805461168f906135e6565b80601f01602080910402602001604051908101604052809291908181526020018280546116bb906135e6565b80156117085780601f106116dd57610100808354040283529160200191611708565b820191906000526020600020905b8154815290600101906020018083116116eb57829003601f168201915b50505050509050809150505b919050565b611721611e34565b8060119080519060200190611737929190612e27565b5050565b611743611e34565b600b60009054906101000a900460ff1615600b60006101000a81548160ff021916908315150217905550565b6000600660008473ffffffffffffffffffffffffffffffffffffffff1673ffffffffffffffffffffffffffffffffffffffff16815260200190815260200160002060008373ffffffffffffffffffffffffffffffffffffffff1673ffffffffffffffffffffffffffffffffffffffff16815260200190815260200160002060009054906101000a900460ff16905092915050565b61180b611e34565b8060109080519060200190611821929190612e27565b5050565b61182d611e34565b600073ffffffffffffffffffffffffffffffffffffffff168173ffffffffffffffffffffffffffffffffffffffff16141561189d576040517f08c379a000000000000000000000000000000000000000000000000000000000815260040161189490613e44565b60405180910390fd5b6118a681611eef565b50565b6118b1611e34565b80600c8190555050565b60007f80ac58cd000000000000000000000000000000000000000000000000000000007bffffffffffffffffffffffffffffffffffffffffffffffffffffffff1916827bffffffffffffffffffffffffffffffffffffffffffffffffffffffff1916148061198657507f5b5e139f000000000000000000000000000000000000000000000000000000007bffffffffffffffffffffffffffffffffffffffffffffffffffffffff1916827bffffffffffffffffffffffffffffffffffffffffffffffffffffffff1916145b8061199657506119958261255b565b5b9050919050565b6119a68161251a565b6119e5576040517f08c379a00000000000000000000000000000000000000000000000000000000081526004016119dc9061396d565b60405180910390fd5b50565b600033905090565b816005600083815260200190815260200160002060006101000a81548173ffffffffffffffffffffffffffffffffffffffff021916908373ffffffffffffffffffffffffffffffffffffffff160217905550808273ffffffffffffffffffffffffffffffffffffffff16611a6383610f59565b73ffffffffffffffffffffffffffffffffffffffff167f8c5be1e5ebec7d5bd14f71427d1e84f3dd0314c0f7b2291e5b200ac8c7c3b92560405160405180910390a45050565b600080611ab583610f59565b90508073ffffffffffffffffffffffffffffffffffffffff168473ffffffffffffffffffffffffffffffffffffffff161480611af75750611af6818561176f565b5b80611b3557508373ffffffffffffffffffffffffffffffffffffffff16611b1d84610a6d565b73ffffffffffffffffffffffffffffffffffffffff16145b91505092915050565b8273ffffffffffffffffffffffffffffffffffffffff16611b5e82610f59565b73ffffffffffffffffffffffffffffffffffffffff1614611bb4576040517f08c379a0000000000000000000000000000000000000000000000000000000008152600401611bab90613ed6565b60405180910390fd5b600073ffffffffffffffffffffffffffffffffffffffff168273ffffffffffffffffffffffffffffffffffffffff161415611c24576040517f08c379a0000000000000000000000000000000000000000000000000000000008152600401611c1b90613f68565b60405180910390fd5b611c2f8383836125c5565b8273ffffffffffffffffffffffffffffffffffffffff16611c4f82610f59565b73ffffffffffffffffffffffffffffffffffffffff1614611ca5576040517f08c379a0000000000000000000000000000000000000000000000000000000008152600401611c9c90613ed6565b60405180910390fd5b6005600082815260200190815260200160002060006101000a81549073ffffffffffffffffffffffffffffffffffffffff02191690556001600460008573ffffffffffffffffffffffffffffffffffffffff1673ffffffffffffffffffffffffffffffffffffffff168152602001908152602001600020600082825403925050819055506001600460008473ffffffffffffffffffffffffffffffffffffffff1673ffffffffffffffffffffffffffffffffffffffff16815260200190815260200160002060008282540192505081905550816003600083815260200190815260200160002060006101000a81548173ffffffffffffffffffffffffffffffffffffffff021916908373ffffffffffffffffffffffffffffffffffffffff160217905550808273ffffffffffffffffffffffffffffffffffffffff168473ffffffffffffffffffffffffffffffffffffffff167fddf252ad1be2c89b69c2b068fc378daa952ba7f163c4a11628f55a4df523b3ef60405160405180910390a4611e2f8383836126d9565b505050565b611e3c6119e8565b73ffffffffffffffffffffffffffffffffffffffff16611e5a611204565b73ffffffffffffffffffffffffffffffffffffffff1614611eb0576040517f08c379a0000000000000000000000000000000000000000000000000000000008152600401611ea790613fd4565b60405180910390fd5b565b60006003600083815260200190815260200160002060009054906101000a900473ffffffffffffffffffffffffffffffffffffffff169050919050565b60008060009054906101000a900473ffffffffffffffffffffffffffffffffffffffff169050816000806101000a81548173ffffffffffffffffffffffffffffffffffffffff021916908373ffffffffffffffffffffffffffffffffffffffff1602179055508173ffffffffffffffffffffffffffffffffffffffff168173ffffffffffffffffffffffffffffffffffffffff167f8be0079c531659141344cd1fd0a4f28419497f9722a3daafe3b4186f6b6457e060405160405180910390a35050565b60005b8281101561234c576032611fc8610c59565b1015612339576000611fd8610c59565b905060006013543342604051602001611ff292919061405d565b6040516020818303038152906040528051906020012060001c61201591906140b8565b905060008114156120615760405180606001604052806035815260200161448b6035913960126000848152602001908152602001600020908051906020019061205f929190612e27565b505b60018110158015612073575060148111155b156120bd576040518060600160405280603c81526020016145ec603c91396012600084815260200190815260200160002090805190602001906120b7929190612e27565b5061232c565b601581101580156120cf575060288111155b15612119576040518060600160405280603c81526020016144c0603c9139601260008481526020019081526020016000209080519060200190612113929190612e27565b5061232b565b6029811015801561212b575060378111155b15612175576040518060600160405280603c815260200161444f603c913960126000848152602001908152602001600020908051906020019061216f929190612e27565b5061232a565b60388110158015612187575060418111155b156121d1576040518060600160405280603c8152602001614574603c91396012600084815260200190815260200160002090805190602001906121cb929190612e27565b50612329565b604281101580156121e35750604b8111155b1561222d576040518060600160405280603c81526020016144fc603c9139601260008481526020019081526020016000209080519060200190612227929190612e27565b50612328565b604c811015801561223f575060558111155b15612289576040518060600160405280603c8152602001614538603c9139601260008481526020019081526020016000209080519060200190612283929190612e27565b50612327565b6056811015801561229b5750605f8111155b156122e5576040518060600160405280603c81526020016145b0603c91396012600084815260200190815260200160002090805190602001906122df929190612e27565b50612326565b6040518060600160405280603c8152602001614628603c9139601260008481526020019081526020016000209080519060200190612324929190612e27565b505b5b5b5b5b5b5b61233684836126de565b50505b8080612344906140e9565b915050611fb6565b505050565b8173ffffffffffffffffffffffffffffffffffffffff168373ffffffffffffffffffffffffffffffffffffffff1614156123c0576040517f08c379a00000000000000000000000000000000000000000000000000000000081526004016123b79061417e565b60405180910390fd5b80600660008573ffffffffffffffffffffffffffffffffffffffff1673ffffffffffffffffffffffffffffffffffffffff16815260200190815260200160002060008473ffffffffffffffffffffffffffffffffffffffff1673ffffffffffffffffffffffffffffffffffffffff16815260200190815260200160002060006101000a81548160ff0219169083151502179055508173ffffffffffffffffffffffffffffffffffffffff168373ffffffffffffffffffffffffffffffffffffffff167f17307eab39ab6107e8899845ad3d59bd9653f200f220920489ca2b5937696c31836040516124b19190612f7e565b60405180910390a3505050565b6124c9848484611b3e565b6124d5848484846126fc565b612514576040517f08c379a000000000000000000000000000000000000000000000000000000000815260040161250b90614210565b60405180910390fd5b50505050565b60008073ffffffffffffffffffffffffffffffffffffffff1661253c83611eb2565b73ffffffffffffffffffffffffffffffffffffffff1614159050919050565b60007f01ffc9a7000000000000000000000000000000000000000000000000000000007bffffffffffffffffffffffffffffffffffffffffffffffffffffffff1916827bffffffffffffffffffffffffffffffffffffffffffffffffffffffff1916149050919050565b6125d0838383612884565b600073ffffffffffffffffffffffffffffffffffffffff168373ffffffffffffffffffffffffffffffffffffffff1614156126135761260e81612889565b612652565b8173ffffffffffffffffffffffffffffffffffffffff168373ffffffffffffffffffffffffffffffffffffffff16146126515761265083826128d2565b5b5b600073ffffffffffffffffffffffffffffffffffffffff168273ffffffffffffffffffffffffffffffffffffffff1614156126955761269081612a3f565b6126d4565b8273ffffffffffffffffffffffffffffffffffffffff168273ffffffffffffffffffffffffffffffffffffffff16146126d3576126d28282612b10565b5b5b505050565b505050565b6126f8828260405180602001604052806000815250612b8f565b5050565b600061271d8473ffffffffffffffffffffffffffffffffffffffff16612bea565b15612877578373ffffffffffffffffffffffffffffffffffffffff1663150b7a026127466119e8565b8786866040518563ffffffff1660e01b81526004016127689493929190614285565b6020604051808303816000875af19250505080156127a457506040513d601f19601f820116820180604052508101906127a191906142e6565b60015b612827573d80600081146127d4576040519150601f19603f3d011682016040523d82523d6000602084013e6127d9565b606091505b5060008151141561281f576040517f08c379a000000000000000000000000000000000000000000000000000000000815260040161281690614210565b60405180910390fd5b805181602001fd5b63150b7a0260e01b7bffffffffffffffffffffffffffffffffffffffffffffffffffffffff1916817bffffffffffffffffffffffffffffffffffffffffffffffffffffffff19161491505061287c565b600190505b949350505050565b505050565b600980549050600a600083815260200190815260200160002081905550600981908060018154018082558091505060019003906000526020600020016000909190919091505550565b600060016128df8461112c565b6128e99190614313565b90506000600860008481526020019081526020016000205490508181146129ce576000600760008673ffffffffffffffffffffffffffffffffffffffff1673ffffffffffffffffffffffffffffffffffffffff168152602001908152602001600020600084815260200190815260200160002054905080600760008773ffffffffffffffffffffffffffffffffffffffff1673ffffffffffffffffffffffffffffffffffffffff168152602001908152602001600020600084815260200190815260200160002081905550816008600083815260200190815260200160002081905550505b6008600084815260200190815260200160002060009055600760008573ffffffffffffffffffffffffffffffffffffffff1673ffffffffffffffffffffffffffffffffffffffff16815260200190815260200160002060008381526020019081526020016000206000905550505050565b60006001600980549050612a539190614313565b90506000600a6000848152602001908152602001600020549050600060098381548110612a8357612a826138f2565b5b906000526020600020015490508060098381548110612aa557612aa46138f2565b5b906000526020600020018190555081600a600083815260200190815260200160002081905550600a6000858152602001908152602001600020600090556009805480612af457612af3614347565b5b6001900381819060005260206000200160009055905550505050565b6000612b1b8361112c565b905081600760008573ffffffffffffffffffffffffffffffffffffffff1673ffffffffffffffffffffffffffffffffffffffff168152602001908152602001600020600083815260200190815260200160002081905550806008600084815260200190815260200160002081905550505050565b612b998383612c0d565b612ba660008484846126fc565b612be5576040517f08c379a0000000000000000000000000000000000000000000000000000000008152600401612bdc90614210565b60405180910390fd5b505050565b6000808273ffffffffffffffffffffffffffffffffffffffff163b119050919050565b600073ffffffffffffffffffffffffffffffffffffffff168273ffffffffffffffffffffffffffffffffffffffff161415612c7d576040517f08c379a0000000000000000000000000000000000000000000000000000000008152600401612c74906143c2565b60405180910390fd5b612c868161251a565b15612cc6576040517f08c379a0000000000000000000000000000000000000000000000000000000008152600401612cbd9061442e565b60405180910390fd5b612cd2600083836125c5565b612cdb8161251a565b15612d1b576040517f08c379a0000000000000000000000000000000000000000000000000000000008152600401612d129061442e565b60405180910390fd5b6001600460008473ffffffffffffffffffffffffffffffffffffffff1673ffffffffffffffffffffffffffffffffffffffff16815260200190815260200160002060008282540192505081905550816003600083815260200190815260200160002060006101000a81548173ffffffffffffffffffffffffffffffffffffffff021916908373ffffffffffffffffffffffffffffffffffffffff160217905550808273ffffffffffffffffffffffffffffffffffffffff16600073ffffffffffffffffffffffffffffffffffffffff167fddf252ad1be2c89b69c2b068fc378daa952ba7f163c4a11628f55a4df523b3ef60405160405180910390a4612e23600083836126d9565b5050565b828054612e33906135e6565b90600052602060002090601f016020900481019282612e555760008555612e9c565b82601f10612e6e57805160ff1916838001178555612e9c565b82800160010185558215612e9c579182015b82811115612e9b578251825591602001919060010190612e80565b5b509050612ea99190612ead565b5090565b5b80821115612ec6576000816000905550600101612eae565b5090565b6000604051905090565b600080fd5b600080fd5b60007fffffffff0000000000000000000000000000000000000000000000000000000082169050919050565b612f1381612ede565b8114612f1e57600080fd5b50565b600081359050612f3081612f0a565b92915050565b600060208284031215612f4c57612f4b612ed4565b5b6000612f5a84828501612f21565b91505092915050565b60008115159050919050565b612f7881612f63565b82525050565b6000602082019050612f936000830184612f6f565b92915050565b600081519050919050565b600082825260208201905092915050565b60005b83811015612fd3578082015181840152602081019050612fb8565b83811115612fe2576000848401525b50505050565b6000601f19601f8301169050919050565b600061300482612f99565b61300e8185612fa4565b935061301e818560208601612fb5565b61302781612fe8565b840191505092915050565b6000602082019050818103600083015261304c8184612ff9565b905092915050565b6000819050919050565b61306781613054565b811461307257600080fd5b50565b6000813590506130848161305e565b92915050565b6000602082840312156130a05761309f612ed4565b5b60006130ae84828501613075565b91505092915050565b600073ffffffffffffffffffffffffffffffffffffffff82169050919050565b60006130e2826130b7565b9050919050565b6130f2816130d7565b82525050565b600060208201905061310d60008301846130e9565b92915050565b61311c816130d7565b811461312757600080fd5b50565b60008135905061313981613113565b92915050565b6000806040838503121561315657613155612ed4565b5b60006131648582860161312a565b925050602061317585828601613075565b9150509250929050565b61318881613054565b82525050565b60006020820190506131a3600083018461317f565b92915050565b6000806000606084860312156131c2576131c1612ed4565b5b60006131d08682870161312a565b93505060206131e18682870161312a565b92505060406131f286828701613075565b9150509250925092565b60006020828403121561321257613211612ed4565b5b60006132208482850161312a565b91505092915050565b600080fd5b600080fd5b7f4e487b7100000000000000000000000000000000000000000000000000000000600052604160045260246000fd5b61326b82612fe8565b810181811067ffffffffffffffff8211171561328a57613289613233565b5b80604052505050565b600061329d612eca565b90506132a98282613262565b919050565b600067ffffffffffffffff8211156132c9576132c8613233565b5b6132d282612fe8565b9050602081019050919050565b82818337600083830152505050565b60006133016132fc846132ae565b613293565b90508281526020810184848401111561331d5761331c61322e565b5b6133288482856132df565b509392505050565b600082601f83011261334557613344613229565b5b81356133558482602086016132ee565b91505092915050565b60006020828403121561337457613373612ed4565b5b600082013567ffffffffffffffff81111561339257613391612ed9565b5b61339e84828501613330565b91505092915050565b600080604083850312156133be576133bd612ed4565b5b60006133cc85828601613075565b92505060206133dd8582860161312a565b9150509250929050565b6133f081612f63565b81146133fb57600080fd5b50565b60008135905061340d816133e7565b92915050565b6000806040838503121561342a57613429612ed4565b5b60006134388582860161312a565b9250506020613449858286016133fe565b9150509250929050565b600067ffffffffffffffff82111561346e5761346d613233565b5b61347782612fe8565b9050602081019050919050565b600061349761349284613453565b613293565b9050828152602081018484840111156134b3576134b261322e565b5b6134be8482856132df565b509392505050565b600082601f8301126134db576134da613229565b5b81356134eb848260208601613484565b91505092915050565b6000806000806080858703121561350e5761350d612ed4565b5b600061351c8782880161312a565b945050602061352d8782880161312a565b935050604061353e87828801613075565b925050606085013567ffffffffffffffff81111561355f5761355e612ed9565b5b61356b878288016134c6565b91505092959194509250565b6000806040838503121561358e5761358d612ed4565b5b600061359c8582860161312a565b92505060206135ad8582860161312a565b9150509250929050565b7f4e487b7100000000000000000000000000000000000000000000000000000000600052602260045260246000fd5b600060028204905060018216806135fe57607f821691505b60208210811415613612576136116135b7565b5b50919050565b7f4552433732313a20617070726f76616c20746f2063757272656e74206f776e6560008201527f7200000000000000000000000000000000000000000000000000000000000000602082015250565b6000613674602183612fa4565b915061367f82613618565b604082019050919050565b600060208201905081810360008301526136a381613667565b9050919050565b7f4552433732313a20617070726f76652063616c6c6572206973206e6f7420746f60008201527f6b656e206f776e6572206f7220617070726f76656420666f7220616c6c000000602082015250565b6000613706603d83612fa4565b9150613711826136aa565b604082019050919050565b60006020820190508181036000830152613735816136f9565b9050919050565b7f4552433732313a2063616c6c6572206973206e6f7420746f6b656e206f776e6560008201527f72206f7220617070726f76656400000000000000000000000000000000000000602082015250565b6000613798602d83612fa4565b91506137a38261373c565b604082019050919050565b600060208201905081810360008301526137c78161378b565b9050919050565b7f455243373231456e756d657261626c653a206f776e657220696e646578206f7560008201527f74206f6620626f756e6473000000000000000000000000000000000000000000602082015250565b600061382a602b83612fa4565b9150613835826137ce565b604082019050919050565b600060208201905081810360008301526138598161381d565b9050919050565b7f455243373231456e756d657261626c653a20676c6f62616c20696e646578206f60008201527f7574206f6620626f756e64730000000000000000000000000000000000000000602082015250565b60006138bc602c83612fa4565b91506138c782613860565b604082019050919050565b600060208201905081810360008301526138eb816138af565b9050919050565b7f4e487b7100000000000000000000000000000000000000000000000000000000600052603260045260246000fd5b7f4552433732313a20696e76616c696420746f6b656e2049440000000000000000600082015250565b6000613957601883612fa4565b915061396282613921565b602082019050919050565b600060208201905081810360008301526139868161394a565b9050919050565b7f4552433732313a2061646472657373207a65726f206973206e6f74206120766160008201527f6c6964206f776e65720000000000000000000000000000000000000000000000602082015250565b60006139e9602983612fa4565b91506139f48261398d565b604082019050919050565b60006020820190508181036000830152613a18816139dc565b9050919050565b7f4e487b7100000000000000000000000000000000000000000000000000000000600052601160045260246000fd5b6000613a5982613054565b9150613a6483613054565b9250827fffffffffffffffffffffffffffffffffffffffffffffffffffffffffffffffff03821115613a9957613a98613a1f565b5b828201905092915050565b7f53616c6520776f756c6420657863656564206d617820737570706c7900000000600082015250565b6000613ada601c83612fa4565b9150613ae582613aa4565b602082019050919050565b60006020820190508181036000830152613b0981613acd565b9050919050565b7f53616c65206d7573742062652061637469766520746f206d696e74204e69634d60008201527f6574617300000000000000000000000000000000000000000000000000000000602082015250565b6000613b6c602483612fa4565b9150613b7782613b10565b604082019050919050565b60006020820190508181036000830152613b9b81613b5f565b9050919050565b7f53616c6520776f756c6420657863656564206d61782062616c616e6365000000600082015250565b6000613bd8601d83612fa4565b9150613be382613ba2565b602082019050919050565b60006020820190508181036000830152613c0781613bcb565b9050919050565b6000613c1982613054565b9150613c2483613054565b9250817fffffffffffffffffffffffffffffffffffffffffffffffffffffffffffffffff0483118215151615613c5d57613c5c613a1f565b5b828202905092915050565b7f4e6f7420656e6f7567682065746865722073656e740000000000000000000000600082015250565b6000613c9e601583612fa4565b9150613ca982613c68565b602082019050919050565b60006020820190508181036000830152613ccd81613c91565b9050919050565b7f43616e206f6e6c79206d696e74203120746f6b656e7320617420612074696d65600082015250565b6000613d0a602083612fa4565b9150613d1582613cd4565b602082019050919050565b60006020820190508181036000830152613d3981613cfd565b9050919050565b7f4552433732314d657461646174613a2055524920717565727920666f72206e6f60008201527f6e6578697374656e7420746f6b656e0000000000000000000000000000000000602082015250565b6000613d9c602f83612fa4565b9150613da782613d40565b604082019050919050565b60006020820190508181036000830152613dcb81613d8f565b9050919050565b7f4f776e61626c653a206e6577206f776e657220697320746865207a65726f206160008201527f6464726573730000000000000000000000000000000000000000000000000000602082015250565b6000613e2e602683612fa4565b9150613e3982613dd2565b604082019050919050565b60006020820190508181036000830152613e5d81613e21565b9050919050565b7f4552433732313a207472616e736665722066726f6d20696e636f72726563742060008201527f6f776e6572000000000000000000000000000000000000000000000000000000602082015250565b6000613ec0602583612fa4565b9150613ecb82613e64565b604082019050919050565b60006020820190508181036000830152613eef81613eb3565b9050919050565b7f4552433732313a207472616e7366657220746f20746865207a65726f2061646460008201527f7265737300000000000000000000000000000000000000000000000000000000602082015250565b6000613f52602483612fa4565b9150613f5d82613ef6565b604082019050919050565b60006020820190508181036000830152613f8181613f45565b9050919050565b7f4f776e61626c653a2063616c6c6572206973206e6f7420746865206f776e6572600082015250565b6000613fbe602083612fa4565b9150613fc982613f88565b602082019050919050565b60006020820190508181036000830152613fed81613fb1565b9050919050565b60008160601b9050919050565b600061400c82613ff4565b9050919050565b600061401e82614001565b9050919050565b614036614031826130d7565b614013565b82525050565b6000819050919050565b61405761405282613054565b61403c565b82525050565b60006140698285614025565b6014820191506140798284614046565b6020820191508190509392505050565b7f4e487b7100000000000000000000000000000000000000000000000000000000600052601260045260246000fd5b60006140c382613054565b91506140ce83613054565b9250826140de576140dd614089565b5b828206905092915050565b60006140f482613054565b91507fffffffffffffffffffffffffffffffffffffffffffffffffffffffffffffffff82141561412757614126613a1f565b5b600182019050919050565b7f4552433732313a20617070726f766520746f2063616c6c657200000000000000600082015250565b6000614168601983612fa4565b915061417382614132565b602082019050919050565b600060208201905081810360008301526141978161415b565b9050919050565b7f4552433732313a207472616e7366657220746f206e6f6e20455243373231526560008201527f63656976657220696d706c656d656e7465720000000000000000000000000000602082015250565b60006141fa603283612fa4565b91506142058261419e565b604082019050919050565b60006020820190508181036000830152614229816141ed565b9050919050565b600081519050919050565b600082825260208201905092915050565b600061425782614230565b614261818561423b565b9350614271818560208601612fb5565b61427a81612fe8565b840191505092915050565b600060808201905061429a60008301876130e9565b6142a760208301866130e9565b6142b4604083018561317f565b81810360608301526142c6818461424c565b905095945050505050565b6000815190506142e081612f0a565b92915050565b6000602082840312156142fc576142fb612ed4565b5b600061430a848285016142d1565b91505092915050565b600061431e82613054565b915061432983613054565b92508282101561433c5761433b613a1f565b5b828203905092915050565b7f4e487b7100000000000000000000000000000000000000000000000000000000600052603160045260246000fd5b7f4552433732313a206d696e7420746f20746865207a65726f2061646472657373600082015250565b60006143ac602083612fa4565b91506143b782614376565b602082019050919050565b600060208201905081810360008301526143db8161439f565b9050919050565b7f4552433732313a20746f6b656e20616c7265616479206d696e74656400000000600082015250565b6000614418601c83612fa4565b9150614423826143e2565b602082019050919050565b600060208201905081810360008301526144478161440b565b905091905056fe697066733a2f2f516d544b795369687352394252557a736657584b74334c654d436231425378704c516a6e644a4c6869456538706b2f332e6a736f6e697066733a2f2f516d65385a4b4d674d4c505979726135316743684a6e3448786770576d386f654b4656324e506a4774426431707a697066733a2f2f516d544b795369687352394252557a736657584b74334c654d436231425378704c516a6e644a4c6869456538706b2f322e6a736f6e697066733a2f2f516d544b795369687352394252557a736657584b74334c654d436231425378704c516a6e644a4c6869456538706b2f352e6a736f6e697066733a2f2f516d544b795369687352394252557a736657584b74334c654d436231425378704c516a6e644a4c6869456538706b2f362e6a736f6e697066733a2f2f516d544b795369687352394252557a736657584b74334c654d436231425378704c516a6e644a4c6869456538706b2f342e6a736f6e697066733a2f2f516d544b795369687352394252557a736657584b74334c654d436231425378704c516a6e644a4c6869456538706b2f372e6a736f6e697066733a2f2f516d544b795369687352394252557a736657584b74334c654d436231425378704c516a6e644a4c6869456538706b2f312e6a736f6e697066733a2f2f516d544b795369687352394252557a736657584b74334c654d436231425378704c516a6e644a4c6869456538706b2f382e6a736f6ea26469706673582212200a79335fac2161d79c96e212a661d7848d5887203003c27056f73c17a416624b64736f6c634300080a0033697066733a2f2f516d527a556b375367556755393238476b594665357965724c517a566b6531415678396a68696d417a6942634155",
  "linkReferences": {},
  "deployedLinkReferences": {}
}