{
  "_format": "hh-sol-artifact-1",
  "contractName": "TripNFT",
  "sourceName": "contracts/TripNFT.sol",
  "abi": [
    {
      "inputs": [],
      "stateMutability": "nonpayable",
      "type": "constructor"
    },
    {
      "anonymous": false,
      "inputs": [
        {
          "indexed": true,
          "internalType": "address",
          "name": "owner",
          "type": "address"
        },
        {
          "indexed": true,
          "internalType": "address",
          "name": "approved",
          "type": "address"
        },
        {
          "indexed": true,
          "internalType": "uint256",
          "name": "tokenId",
          "type": "uint256"
        }
      ],
      "name": "Approval",
      "type": "event"
    },
    {
      "anonymous": false,
      "inputs": [
        {
          "indexed": true,
          "internalType": "address",
          "name": "owner",
          "type": "address"
        },
        {
          "indexed": true,
          "internalType": "address",
          "name": "operator",
          "type": "address"
        },
        {
          "indexed": false,
          "internalType": "bool",
          "name": "approved",
          "type": "bool"
        }
      ],
      "name": "ApprovalForAll",
      "type": "event"
    },
    {
      "anonymous": false,
      "inputs": [
        {
          "indexed": true,
          "internalType": "address",
          "name": "previousOwner",
          "type": "address"
        },
        {
          "indexed": true,
          "internalType": "address",
          "name": "newOwner",
          "type": "address"
        }
      ],
      "name": "OwnershipTransferred",
      "type": "event"
    },
    {
      "anonymous": false,
      "inputs": [
        {
          "indexed": true,
          "internalType": "address",
          "name": "from",
          "type": "address"
        },
        {
          "indexed": true,
          "internalType": "address",
          "name": "to",
          "type": "address"
        },
        {
          "indexed": true,
          "internalType": "uint256",
          "name": "tokenId",
          "type": "uint256"
        }
      ],
      "name": "Transfer",
      "type": "event"
    },
    {
      "stateMutability": "payable",
      "type": "fallback"
    },
    {
      "inputs": [],
      "name": "BOX_SUPPLY",
      "outputs": [
        {
          "internalType": "uint256",
          "name": "",
          "type": "uint256"
        }
      ],
      "stateMutability": "view",
      "type": "function"
    },
    {
      "inputs": [],
      "name": "MAX_SUPPLY",
      "outputs": [
        {
          "internalType": "uint256",
          "name": "",
          "type": "uint256"
        }
      ],
      "stateMutability": "view",
      "type": "function"
    },
    {
      "inputs": [
        {
          "internalType": "address",
          "name": "to",
          "type": "address"
        },
        {
          "internalType": "uint256",
          "name": "tokenId",
          "type": "uint256"
        }
      ],
      "name": "approve",
      "outputs": [],
      "stateMutability": "nonpayable",
      "type": "function"
    },
    {
      "inputs": [
        {
          "internalType": "address",
          "name": "owner",
          "type": "address"
        }
      ],
      "name": "balanceOf",
      "outputs": [
        {
          "internalType": "uint256",
          "name": "",
          "type": "uint256"
        }
      ],
      "stateMutability": "view",
      "type": "function"
    },
    {
      "inputs": [],
      "name": "baseExtension",
      "outputs": [
        {
          "internalType": "string",
          "name": "",
          "type": "string"
        }
      ],
      "stateMutability": "view",
      "type": "function"
    },
    {
      "inputs": [],
      "name": "baseURI",
      "outputs": [
        {
          "internalType": "string",
          "name": "",
          "type": "string"
        }
      ],
      "stateMutability": "view",
      "type": "function"
    },
    {
      "inputs": [],
      "name": "flipReveal",
      "outputs": [],
      "stateMutability": "nonpayable",
      "type": "function"
    },
    {
      "inputs": [],
      "name": "flipSaleActive",
      "outputs": [],
      "stateMutability": "nonpayable",
      "type": "function"
    },
    {
      "inputs": [
        {
          "internalType": "uint256",
          "name": "tokenId",
          "type": "uint256"
        }
      ],
      "name": "getApproved",
      "outputs": [
        {
          "internalType": "address",
          "name": "",
          "type": "address"
        }
      ],
      "stateMutability": "view",
      "type": "function"
    },
    {
      "inputs": [
        {
          "internalType": "address",
          "name": "owner",
          "type": "address"
        },
        {
          "internalType": "address",
          "name": "operator",
          "type": "address"
        }
      ],
      "name": "isApprovedForAll",
      "outputs": [
        {
          "internalType": "bool",
          "name": "",
          "type": "bool"
        }
      ],
      "stateMutability": "view",
      "type": "function"
    },
    {
      "inputs": [
        {
          "internalType": "bytes32[]",
          "name": "merkleProof",
          "type": "bytes32[]"
        }
      ],
      "name": "isValidUser",
      "outputs": [
        {
          "internalType": "bool",
          "name": "",
          "type": "bool"
        }
      ],
      "stateMutability": "view",
      "type": "function"
    },
    {
      "inputs": [],
      "name": "maxBalance",
      "outputs": [
        {
          "internalType": "uint256",
          "name": "",
          "type": "uint256"
        }
      ],
      "stateMutability": "view",
      "type": "function"
    },
    {
      "inputs": [],
      "name": "maxMint",
      "outputs": [
        {
          "internalType": "uint256",
          "name": "",
          "type": "uint256"
        }
      ],
      "stateMutability": "view",
      "type": "function"
    },
    {
      "inputs": [],
      "name": "merkleRootHash",
      "outputs": [
        {
          "internalType": "bytes32",
          "name": "",
          "type": "bytes32"
        }
      ],
      "stateMutability": "view",
      "type": "function"
    },
    {
      "inputs": [],
      "name": "mintPrice",
      "outputs": [
        {
          "internalType": "uint256",
          "name": "",
          "type": "uint256"
        }
      ],
      "stateMutability": "view",
      "type": "function"
    },
    {
      "inputs": [],
      "name": "name",
      "outputs": [
        {
          "internalType": "string",
          "name": "",
          "type": "string"
        }
      ],
      "stateMutability": "view",
      "type": "function"
    },
    {
      "inputs": [],
      "name": "owner",
      "outputs": [
        {
          "internalType": "address",
          "name": "",
          "type": "address"
        }
      ],
      "stateMutability": "view",
      "type": "function"
    },
    {
      "inputs": [
        {
          "internalType": "uint256",
          "name": "tokenId",
          "type": "uint256"
        }
      ],
      "name": "ownerOf",
      "outputs": [
        {
          "internalType": "address",
          "name": "",
          "type": "address"
        }
      ],
      "stateMutability": "view",
      "type": "function"
    },
    {
      "inputs": [
        {
          "internalType": "uint256",
          "name": "numberOfTokens",
          "type": "uint256"
        },
        {
          "internalType": "bytes32[]",
          "name": "merkleProof",
          "type": "bytes32[]"
        }
      ],
      "name": "preMint",
      "outputs": [],
      "stateMutability": "payable",
      "type": "function"
    },
    {
      "inputs": [
        {
          "internalType": "uint256",
          "name": "numberOfTokens",
          "type": "uint256"
        }
      ],
      "name": "publicMint",
      "outputs": [],
      "stateMutability": "payable",
      "type": "function"
    },
    {
      "inputs": [],
      "name": "renounceOwnership",
      "outputs": [],
      "stateMutability": "nonpayable",
      "type": "function"
    },
    {
      "inputs": [],
      "name": "reserveNFT",
      "outputs": [],
      "stateMutability": "nonpayable",
      "type": "function"
    },
    {
      "inputs": [],
      "name": "reserveSpecialNFT",
      "outputs": [],
      "stateMutability": "nonpayable",
      "type": "function"
    },
    {
      "inputs": [],
      "name": "revealedState",
      "outputs": [
        {
          "internalType": "bool",
          "name": "",
          "type": "bool"
        }
      ],
      "stateMutability": "view",
      "type": "function"
    },
    {
      "inputs": [
        {
          "internalType": "address",
          "name": "from",
          "type": "address"
        },
        {
          "internalType": "address",
          "name": "to",
          "type": "address"
        },
        {
          "internalType": "uint256",
          "name": "tokenId",
          "type": "uint256"
        }
      ],
      "name": "safeTransferFrom",
      "outputs": [],
      "stateMutability": "nonpayable",
      "type": "function"
    },
    {
      "inputs": [
        {
          "internalType": "address",
          "name": "from",
          "type": "address"
        },
        {
          "internalType": "address",
          "name": "to",
          "type": "address"
        },
        {
          "internalType": "uint256",
          "name": "tokenId",
          "type": "uint256"
        },
        {
          "internalType": "bytes",
          "name": "data",
          "type": "bytes"
        }
      ],
      "name": "safeTransferFrom",
      "outputs": [],
      "stateMutability": "nonpayable",
      "type": "function"
    },
    {
      "inputs": [],
      "name": "saleIsActive",
      "outputs": [
        {
          "internalType": "bool",
          "name": "",
          "type": "bool"
        }
      ],
      "stateMutability": "view",
      "type": "function"
    },
    {
      "inputs": [],
      "name": "saleStage",
      "outputs": [
        {
          "internalType": "uint256",
          "name": "",
          "type": "uint256"
        }
      ],
      "stateMutability": "view",
      "type": "function"
    },
    {
      "inputs": [
        {
          "internalType": "address",
          "name": "operator",
          "type": "address"
        },
        {
          "internalType": "bool",
          "name": "approved",
          "type": "bool"
        }
      ],
      "name": "setApprovalForAll",
      "outputs": [],
      "stateMutability": "nonpayable",
      "type": "function"
    },
    {
      "inputs": [
        {
          "internalType": "string",
          "name": "_newBaseExtension",
          "type": "string"
        }
      ],
      "name": "setBaseExtension",
      "outputs": [],
      "stateMutability": "nonpayable",
      "type": "function"
    },
    {
      "inputs": [
        {
          "internalType": "string",
          "name": "_newBaseURI",
          "type": "string"
        }
      ],
      "name": "setBaseURI",
      "outputs": [],
      "stateMutability": "nonpayable",
      "type": "function"
    },
    {
      "inputs": [
        {
          "internalType": "uint256",
          "name": "_maxBalance",
          "type": "uint256"
        }
      ],
      "name": "setMaxBalance",
      "outputs": [],
      "stateMutability": "nonpayable",
      "type": "function"
    },
    {
      "inputs": [
        {
          "internalType": "uint256",
          "name": "_maxMint",
          "type": "uint256"
        }
      ],
      "name": "setMaxMint",
      "outputs": [],
      "stateMutability": "nonpayable",
      "type": "function"
    },
    {
      "inputs": [
        {
          "internalType": "uint256",
          "name": "_mintPrice",
          "type": "uint256"
        }
      ],
      "name": "setMintPrice",
      "outputs": [],
      "stateMutability": "nonpayable",
      "type": "function"
    },
    {
      "inputs": [
        {
          "internalType": "string",
          "name": "_unrevealedURI",
          "type": "string"
        }
      ],
      "name": "setNotRevealedURI",
      "outputs": [],
      "stateMutability": "nonpayable",
      "type": "function"
    },
    {
      "inputs": [
        {
          "internalType": "bytes32",
          "name": "_merkleRootHash",
          "type": "bytes32"
        }
      ],
      "name": "setRootHash",
      "outputs": [],
      "stateMutability": "nonpayable",
      "type": "function"
    },
    {
      "inputs": [
        {
          "internalType": "uint256",
          "name": "_stage",
          "type": "uint256"
        }
      ],
      "name": "setSaleStage",
      "outputs": [],
      "stateMutability": "nonpayable",
      "type": "function"
    },
    {
      "inputs": [],
      "name": "specialURI",
      "outputs": [
        {
          "internalType": "string",
          "name": "",
          "type": "string"
        }
      ],
      "stateMutability": "view",
      "type": "function"
    },
    {
      "inputs": [
        {
          "internalType": "bytes4",
          "name": "interfaceId",
          "type": "bytes4"
        }
      ],
      "name": "supportsInterface",
      "outputs": [
        {
          "internalType": "bool",
          "name": "",
          "type": "bool"
        }
      ],
      "stateMutability": "view",
      "type": "function"
    },
    {
      "inputs": [],
      "name": "symbol",
      "outputs": [
        {
          "internalType": "string",
          "name": "",
          "type": "string"
        }
      ],
      "stateMutability": "view",
      "type": "function"
    },
    {
      "inputs": [
        {
          "internalType": "uint256",
          "name": "index",
          "type": "uint256"
        }
      ],
      "name": "tokenByIndex",
      "outputs": [
        {
          "internalType": "uint256",
          "name": "",
          "type": "uint256"
        }
      ],
      "stateMutability": "view",
      "type": "function"
    },
    {
      "inputs": [
        {
          "internalType": "address",
          "name": "owner",
          "type": "address"
        },
        {
          "internalType": "uint256",
          "name": "index",
          "type": "uint256"
        }
      ],
      "name": "tokenOfOwnerByIndex",
      "outputs": [
        {
          "internalType": "uint256",
          "name": "",
          "type": "uint256"
        }
      ],
      "stateMutability": "view",
      "type": "function"
    },
    {
      "inputs": [
        {
          "internalType": "uint256",
          "name": "tokenId",
          "type": "uint256"
        }
      ],
      "name": "tokenURI",
      "outputs": [
        {
          "internalType": "string",
          "name": "",
          "type": "string"
        }
      ],
      "stateMutability": "view",
      "type": "function"
    },
    {
      "inputs": [],
      "name": "totalSupply",
      "outputs": [
        {
          "internalType": "uint256",
          "name": "",
          "type": "uint256"
        }
      ],
      "stateMutability": "view",
      "type": "function"
    },
    {
      "inputs": [
        {
          "internalType": "address",
          "name": "from",
          "type": "address"
        },
        {
          "internalType": "address",
          "name": "to",
          "type": "address"
        },
        {
          "internalType": "uint256",
          "name": "tokenId",
          "type": "uint256"
        }
      ],
      "name": "transferFrom",
      "outputs": [],
      "stateMutability": "nonpayable",
      "type": "function"
    },
    {
      "inputs": [
        {
          "internalType": "address",
          "name": "newOwner",
          "type": "address"
        }
      ],
      "name": "transferOwnership",
      "outputs": [],
      "stateMutability": "nonpayable",
      "type": "function"
    },
    {
      "inputs": [],
      "name": "unrevealedURI",
      "outputs": [
        {
          "internalType": "string",
          "name": "",
          "type": "string"
        }
      ],
      "stateMutability": "view",
      "type": "function"
    },
    {
      "inputs": [
        {
          "internalType": "address",
          "name": "to",
          "type": "address"
        }
      ],
      "name": "withdrawMoney",
      "outputs": [],
      "stateMutability": "nonpayable",
      "type": "function"
    },
    {
      "stateMutability": "payable",
      "type": "receive"
    }
  ],
  "bytecode": "0x60806040527ffdbb9776475fc02fbd67aded2b6edb467ef1c653380995853a76d68cfa0f72a860001b600b556000600c60006101000a81548160ff0219169083151502179055506000600d556000600e60006101000a81548160ff021916908315150217905550662386f26fc10000600f55600560105560026011556040518060600160405280603581526020016200523a6035913960129080519060200190620000ac92919062000336565b506040518060200160405280600081525060139080519060200190620000d492919062000336565b506040518060600160405280603581526020016200526f60359139601490805190602001906200010692919062000336565b506040518060400160405280600581526020017f2e6a736f6e000000000000000000000000000000000000000000000000000000815250601590805190602001906200015492919062000336565b503480156200016257600080fd5b506040518060400160405280600981526020017f596f75596f754e465400000000000000000000000000000000000000000000008152506040518060400160405280600681526020017f594f55594f550000000000000000000000000000000000000000000000000000815250620001ef620001e36200026a60201b60201c565b6200027260201b60201c565b81600190805190602001906200020792919062000336565b5080600290805190602001906200022092919062000336565b50505033601760006101000a81548173ffffffffffffffffffffffffffffffffffffffff021916908373ffffffffffffffffffffffffffffffffffffffff1602179055506200044b565b600033905090565b60008060009054906101000a900473ffffffffffffffffffffffffffffffffffffffff169050816000806101000a81548173ffffffffffffffffffffffffffffffffffffffff021916908373ffffffffffffffffffffffffffffffffffffffff1602179055508173ffffffffffffffffffffffffffffffffffffffff168173ffffffffffffffffffffffffffffffffffffffff167f8be0079c531659141344cd1fd0a4f28419497f9722a3daafe3b4186f6b6457e060405160405180910390a35050565b828054620003449062000415565b90600052602060002090601f016020900481019282620003685760008555620003b4565b82601f106200038357805160ff1916838001178555620003b4565b82800160010185558215620003b4579182015b82811115620003b357825182559160200191906001019062000396565b5b509050620003c39190620003c7565b5090565b5b80821115620003e2576000816000905550600101620003c8565b5090565b7f4e487b7100000000000000000000000000000000000000000000000000000000600052602260045260246000fd5b600060028204905060018216806200042e57607f821691505b60208210811415620004455762000444620003e6565b5b50919050565b614ddf806200045b6000396000f3fe6080604052600436106102975760003560e01c80636c0360eb1161015a578063c6682862116100c1578063e985e9c51161007a578063e985e9c5146109a4578063eb8d2444146109e1578063f2c4ce1e14610a0c578063f2fde38b14610a35578063f4a0a52814610a5e578063fb918da214610a875761029e565b8063c668286214610894578063c87b56dd146108bf578063d26bf52e146108fc578063da3ef23f14610939578063ddb6dfc414610962578063de8b51e11461098d5761029e565b80638da5cb5b116101135780638da5cb5b146107ac57806395d89b41146107d75780639d51d9b714610802578063a22cb4651461082b578063b88d4fde14610854578063c617f4ed1461087d5761029e565b80636c0360eb146106ac5780637035bf18146106d757806370a0823114610702578063715018a61461073f57806373ad468a146107565780637501f741146107815761029e565b80632f971029116101fe5780634f6ccce7116101b75780634f6ccce714610599578063547520fe146105d657806355f804b3146105ff5780635a546223146106285780636352211e146106445780636817c76c146106815761029e565b80632f971029146104c357806332cb6b0c146104ec5780633b84d9c61461051757806342842e0e1461052e57806344845a6f146105575780634aaca86d1461056e5761029e565b806318160ddd1161025057806318160ddd146103c257806319d02fab146103ed57806323b872dd146104185780632d7eae66146104415780632db115441461046a5780632f745c59146104865761029e565b806301ffc9a7146102a057806306fdde03146102dd578063081812fc14610308578063095ea7b3146103455780630c6e543c1461036e57806311f8e678146103995761029e565b3661029e57005b005b3480156102ac57600080fd5b506102c760048036038101906102c291906134f0565b610ab2565b6040516102d49190613538565b60405180910390f35b3480156102e957600080fd5b506102f2610b2c565b6040516102ff91906135ec565b60405180910390f35b34801561031457600080fd5b5061032f600480360381019061032a9190613644565b610bbe565b60405161033c91906136b2565b60405180910390f35b34801561035157600080fd5b5061036c600480360381019061036791906136f9565b610c04565b005b34801561037a57600080fd5b50610383610d1c565b6040516103909190613748565b60405180910390f35b3480156103a557600080fd5b506103c060048036038101906103bb9190613644565b610d22565b005b3480156103ce57600080fd5b506103d7610d34565b6040516103e49190613748565b60405180910390f35b3480156103f957600080fd5b50610402610d41565b60405161040f9190613538565b60405180910390f35b34801561042457600080fd5b5061043f600480360381019061043a9190613763565b610d54565b005b34801561044d57600080fd5b50610468600480360381019061046391906137ec565b610db4565b005b610484600480360381019061047f9190613644565b610dc6565b005b34801561049257600080fd5b506104ad60048036038101906104a891906136f9565b610fab565b6040516104ba9190613748565b60405180910390f35b3480156104cf57600080fd5b506104ea60048036038101906104e59190613819565b611050565b005b3480156104f857600080fd5b506105016110a2565b60405161050e9190613748565b60405180910390f35b34801561052357600080fd5b5061052c6110a8565b005b34801561053a57600080fd5b5061055560048036038101906105509190613763565b6110dc565b005b34801561056357600080fd5b5061056c6110fc565b005b34801561057a57600080fd5b506105836111f2565b6040516105909190613748565b60405180910390f35b3480156105a557600080fd5b506105c060048036038101906105bb9190613644565b6111f8565b6040516105cd9190613748565b60405180910390f35b3480156105e257600080fd5b506105fd60048036038101906105f89190613644565b611269565b005b34801561060b57600080fd5b506106266004803603810190610621919061397b565b61127b565b005b610642600480360381019061063d9190613a24565b61129d565b005b34801561065057600080fd5b5061066b60048036038101906106669190613644565b61147d565b60405161067891906136b2565b60405180910390f35b34801561068d57600080fd5b50610696611504565b6040516106a39190613748565b60405180910390f35b3480156106b857600080fd5b506106c161150a565b6040516106ce91906135ec565b60405180910390f35b3480156106e357600080fd5b506106ec611598565b6040516106f991906135ec565b60405180910390f35b34801561070e57600080fd5b5061072960048036038101906107249190613819565b611626565b6040516107369190613748565b60405180910390f35b34801561074b57600080fd5b506107546116de565b005b34801561076257600080fd5b5061076b6116f2565b6040516107789190613748565b60405180910390f35b34801561078d57600080fd5b506107966116f8565b6040516107a39190613748565b60405180910390f35b3480156107b857600080fd5b506107c16116fe565b6040516107ce91906136b2565b60405180910390f35b3480156107e357600080fd5b506107ec611727565b6040516107f991906135ec565b60405180910390f35b34801561080e57600080fd5b5061082960048036038101906108249190613644565b6117b9565b005b34801561083757600080fd5b50610852600480360381019061084d9190613ab0565b6117cb565b005b34801561086057600080fd5b5061087b60048036038101906108769190613b91565b6117e1565b005b34801561088957600080fd5b50610892611843565b005b3480156108a057600080fd5b506108a96118a6565b6040516108b691906135ec565b60405180910390f35b3480156108cb57600080fd5b506108e660048036038101906108e19190613644565b611934565b6040516108f391906135ec565b60405180910390f35b34801561090857600080fd5b50610923600480360381019061091e9190613c14565b611b51565b6040516109309190613538565b60405180910390f35b34801561094557600080fd5b50610960600480360381019061095b919061397b565b611bd4565b005b34801561096e57600080fd5b50610977611bf6565b6040516109849190613c70565b60405180910390f35b34801561099957600080fd5b506109a2611bfc565b005b3480156109b057600080fd5b506109cb60048036038101906109c69190613c8b565b611c30565b6040516109d89190613538565b60405180910390f35b3480156109ed57600080fd5b506109f6611cc4565b604051610a039190613538565b60405180910390f35b348015610a1857600080fd5b50610a336004803603810190610a2e919061397b565b611cd7565b005b348015610a4157600080fd5b50610a5c6004803603810190610a579190613819565b611cf9565b005b348015610a6a57600080fd5b50610a856004803603810190610a809190613644565b611d7d565b005b348015610a9357600080fd5b50610a9c611d8f565b604051610aa991906135ec565b60405180910390f35b60007f780e9d63000000000000000000000000000000000000000000000000000000007bffffffffffffffffffffffffffffffffffffffffffffffffffffffff1916827bffffffffffffffffffffffffffffffffffffffffffffffffffffffff19161480610b255750610b2482611e1d565b5b9050919050565b606060018054610b3b90613cfa565b80601f0160208091040260200160405190810160405280929190818152602001828054610b6790613cfa565b8015610bb45780601f10610b8957610100808354040283529160200191610bb4565b820191906000526020600020905b815481529060010190602001808311610b9757829003601f168201915b5050505050905090565b6000610bc982611eff565b6005600083815260200190815260200160002060009054906101000a900473ffffffffffffffffffffffffffffffffffffffff169050919050565b6000610c0f8261147d565b90508073ffffffffffffffffffffffffffffffffffffffff168373ffffffffffffffffffffffffffffffffffffffff161415610c80576040517f08c379a0000000000000000000000000000000000000000000000000000000008152600401610c7790613d9e565b60405180910390fd5b8073ffffffffffffffffffffffffffffffffffffffff16610c9f611f4a565b73ffffffffffffffffffffffffffffffffffffffff161480610cce5750610ccd81610cc8611f4a565b611c30565b5b610d0d576040517f08c379a0000000000000000000000000000000000000000000000000000000008152600401610d0490613e30565b60405180910390fd5b610d178383611f52565b505050565b61037081565b610d2a61200b565b80600d8190555050565b6000600980549050905090565b600e60009054906101000a900460ff1681565b610d65610d5f611f4a565b82612089565b610da4576040517f08c379a0000000000000000000000000000000000000000000000000000000008152600401610d9b90613ec2565b60405180910390fd5b610daf83838361211e565b505050565b610dbc61200b565b80600b8190555050565b34610ddc600f548361241490919063ffffffff16565b1115610e1d576040517f08c379a0000000000000000000000000000000000000000000000000000000008152600401610e1490613f2e565b60405180910390fd5b6103e881610e29610d34565b610e339190613f7d565b1115610e74576040517f08c379a0000000000000000000000000000000000000000000000000000000008152600401610e6b9061401f565b60405180910390fd5b600c60009054906101000a900460ff16610ec3576040517f08c379a0000000000000000000000000000000000000000000000000000000008152600401610eba906140b1565b60405180910390fd5b601054610ecf33611626565b82610eda9190613f7d565b1115610f1b576040517f08c379a0000000000000000000000000000000000000000000000000000000008152600401610f129061411d565b60405180910390fd5b601154811115610f60576040517f08c379a0000000000000000000000000000000000000000000000000000000008152600401610f5790614189565b60405180910390fd5b60005b81811015610fa7576000610f75610d34565b90506103e8610f82610d34565b1015610f9357610f92338261242a565b5b508080610f9f906141a9565b915050610f63565b5050565b6000610fb683611626565b8210610ff7576040517f08c379a0000000000000000000000000000000000000000000000000000000008152600401610fee90614264565b60405180910390fd5b600760008473ffffffffffffffffffffffffffffffffffffffff1673ffffffffffffffffffffffffffffffffffffffff168152602001908152602001600020600083815260200190815260200160002054905092915050565b61105861200b565b8073ffffffffffffffffffffffffffffffffffffffff166108fc479081150290604051600060405180830381858888f1935050505015801561109e573d6000803e3d6000fd5b5050565b6103e881565b6110b061200b565b600e60009054906101000a900460ff1615600e60006101000a81548160ff021916908315150217905550565b6110f7838383604051806020016040528060008152506117e1565b505050565b61110461200b565b60006126ac90505b6127108110156111ef576000819050611147601760009054906101000a900473ffffffffffffffffffffffffffffffffffffffff168261242a565b6111db816013805461115890613cfa565b80601f016020809104026020016040519081016040528092919081815260200182805461118490613cfa565b80156111d15780601f106111a6576101008083540402835291602001916111d1565b820191906000526020600020905b8154815290600101906020018083116111b457829003601f168201915b5050505050612448565b5080806111e7906141a9565b91505061110c565b50565b600d5481565b6000611202610d34565b8210611243576040517f08c379a000000000000000000000000000000000000000000000000000000000815260040161123a906142f6565b60405180910390fd5b6009828154811061125757611256614316565b5b90600052602060002001549050919050565b61127161200b565b8060118190555050565b61128361200b565b80601290805190602001906112999291906133e1565b5050565b600115156112ab8383611b51565b1515146112ed576040517f08c379a00000000000000000000000000000000000000000000000000000000081526004016112e490614391565b60405180910390fd5b6103e8836112f9610d34565b6113039190613f7d565b1115611344576040517f08c379a000000000000000000000000000000000000000000000000000000000815260040161133b9061401f565b60405180910390fd5b600c60009054906101000a900460ff16611393576040517f08c379a000000000000000000000000000000000000000000000000000000000815260040161138a906140b1565b60405180910390fd5b601054836113a033611626565b6113aa9190613f7d565b11156113eb576040517f08c379a00000000000000000000000000000000000000000000000000000000081526004016113e29061411d565b60405180910390fd5b601154831115611430576040517f08c379a000000000000000000000000000000000000000000000000000000000815260040161142790614189565b60405180910390fd5b60005b83811015611477576000611445610d34565b90506103e8611452610d34565b101561146357611462338261242a565b5b50808061146f906141a9565b915050611433565b50505050565b600080611489836124bc565b9050600073ffffffffffffffffffffffffffffffffffffffff168173ffffffffffffffffffffffffffffffffffffffff1614156114fb576040517f08c379a00000000000000000000000000000000000000000000000000000000081526004016114f2906143fd565b60405180910390fd5b80915050919050565b600f5481565b6012805461151790613cfa565b80601f016020809104026020016040519081016040528092919081815260200182805461154390613cfa565b80156115905780601f1061156557610100808354040283529160200191611590565b820191906000526020600020905b81548152906001019060200180831161157357829003601f168201915b505050505081565b601480546115a590613cfa565b80601f01602080910402602001604051908101604052809291908181526020018280546115d190613cfa565b801561161e5780601f106115f35761010080835404028352916020019161161e565b820191906000526020600020905b81548152906001019060200180831161160157829003601f168201915b505050505081565b60008073ffffffffffffffffffffffffffffffffffffffff168273ffffffffffffffffffffffffffffffffffffffff161415611697576040517f08c379a000000000000000000000000000000000000000000000000000000000815260040161168e9061448f565b60405180910390fd5b600460008373ffffffffffffffffffffffffffffffffffffffff1673ffffffffffffffffffffffffffffffffffffffff168152602001908152602001600020549050919050565b6116e661200b565b6116f060006124f9565b565b60105481565b60115481565b60008060009054906101000a900473ffffffffffffffffffffffffffffffffffffffff16905090565b60606002805461173690613cfa565b80601f016020809104026020016040519081016040528092919081815260200182805461176290613cfa565b80156117af5780601f10611784576101008083540402835291602001916117af565b820191906000526020600020905b81548152906001019060200180831161179257829003601f168201915b5050505050905090565b6117c161200b565b8060108190555050565b6117dd6117d6611f4a565b83836125bd565b5050565b6117f26117ec611f4a565b83612089565b611831576040517f08c379a000000000000000000000000000000000000000000000000000000000815260040161182890613ec2565b60405180910390fd5b61183d8484848461272a565b50505050565b61184b61200b565b60005b60328110156118a3576000611861610d34565b905061188f601760009054906101000a900473ffffffffffffffffffffffffffffffffffffffff168261242a565b50808061189b906141a9565b91505061184e565b50565b601580546118b390613cfa565b80601f01602080910402602001604051908101604052809291908181526020018280546118df90613cfa565b801561192c5780601f106119015761010080835404028352916020019161192c565b820191906000526020600020905b81548152906001019060200180831161190f57829003601f168201915b505050505081565b606061193f82612786565b61197e576040517f08c379a000000000000000000000000000000000000000000000000000000000815260040161197590614521565b60405180910390fd5b60001515600e60009054906101000a900460ff1615151415611a2c57601480546119a790613cfa565b80601f01602080910402602001604051908101604052809291908181526020018280546119d390613cfa565b8015611a205780601f106119f557610100808354040283529160200191611a20565b820191906000526020600020905b815481529060010190602001808311611a0357829003601f168201915b50505050509050611b4c565b6000601660008481526020019081526020016000208054611a4c90613cfa565b80601f0160208091040260200160405190810160405280929190818152602001828054611a7890613cfa565b8015611ac55780601f10611a9a57610100808354040283529160200191611ac5565b820191906000526020600020905b815481529060010190602001808311611aa857829003601f168201915b505050505090506000611ad66127c7565b9050600082511115611b1a578082611aed86612859565b6015604051602001611b02949392919061465d565b60405160208183030381529060405292505050611b4c565b80611b2485612859565b6015604051602001611b38939291906146b1565b604051602081830303815290604052925050505b919050565b60008033604051602001611b659190614735565b604051602081830303815290604052805190602001209050611bcb848480806020026020016040519081016040528093929190818152602001838360200280828437600081840152601f19601f82011690508083019250505050505050600b5483612931565b91505092915050565b611bdc61200b565b8060159080519060200190611bf29291906133e1565b5050565b600b5481565b611c0461200b565b600c60009054906101000a900460ff1615600c60006101000a81548160ff021916908315150217905550565b6000600660008473ffffffffffffffffffffffffffffffffffffffff1673ffffffffffffffffffffffffffffffffffffffff16815260200190815260200160002060008373ffffffffffffffffffffffffffffffffffffffff1673ffffffffffffffffffffffffffffffffffffffff16815260200190815260200160002060009054906101000a900460ff16905092915050565b600c60009054906101000a900460ff1681565b611cdf61200b565b8060149080519060200190611cf59291906133e1565b5050565b611d0161200b565b600073ffffffffffffffffffffffffffffffffffffffff168173ffffffffffffffffffffffffffffffffffffffff161415611d71576040517f08c379a0000000000000000000000000000000000000000000000000000000008152600401611d68906147c2565b60405180910390fd5b611d7a816124f9565b50565b611d8561200b565b80600f8190555050565b60138054611d9c90613cfa565b80601f0160208091040260200160405190810160405280929190818152602001828054611dc890613cfa565b8015611e155780601f10611dea57610100808354040283529160200191611e15565b820191906000526020600020905b815481529060010190602001808311611df857829003601f168201915b505050505081565b60007f80ac58cd000000000000000000000000000000000000000000000000000000007bffffffffffffffffffffffffffffffffffffffffffffffffffffffff1916827bffffffffffffffffffffffffffffffffffffffffffffffffffffffff19161480611ee857507f5b5e139f000000000000000000000000000000000000000000000000000000007bffffffffffffffffffffffffffffffffffffffffffffffffffffffff1916827bffffffffffffffffffffffffffffffffffffffffffffffffffffffff1916145b80611ef85750611ef782612948565b5b9050919050565b611f0881612786565b611f47576040517f08c379a0000000000000000000000000000000000000000000000000000000008152600401611f3e906143fd565b60405180910390fd5b50565b600033905090565b816005600083815260200190815260200160002060006101000a81548173ffffffffffffffffffffffffffffffffffffffff021916908373ffffffffffffffffffffffffffffffffffffffff160217905550808273ffffffffffffffffffffffffffffffffffffffff16611fc58361147d565b73ffffffffffffffffffffffffffffffffffffffff167f8c5be1e5ebec7d5bd14f71427d1e84f3dd0314c0f7b2291e5b200ac8c7c3b92560405160405180910390a45050565b612013611f4a565b73ffffffffffffffffffffffffffffffffffffffff166120316116fe565b73ffffffffffffffffffffffffffffffffffffffff1614612087576040517f08c379a000000000000000000000000000000000000000000000000000000000815260040161207e9061482e565b60405180910390fd5b565b6000806120958361147d565b90508073ffffffffffffffffffffffffffffffffffffffff168473ffffffffffffffffffffffffffffffffffffffff1614806120d757506120d68185611c30565b5b8061211557508373ffffffffffffffffffffffffffffffffffffffff166120fd84610bbe565b73ffffffffffffffffffffffffffffffffffffffff16145b91505092915050565b8273ffffffffffffffffffffffffffffffffffffffff1661213e8261147d565b73ffffffffffffffffffffffffffffffffffffffff1614612194576040517f08c379a000000000000000000000000000000000000000000000000000000000815260040161218b906148c0565b60405180910390fd5b600073ffffffffffffffffffffffffffffffffffffffff168273ffffffffffffffffffffffffffffffffffffffff161415612204576040517f08c379a00000000000000000000000000000000000000000000000000000000081526004016121fb90614952565b60405180910390fd5b61220f8383836129b2565b8273ffffffffffffffffffffffffffffffffffffffff1661222f8261147d565b73ffffffffffffffffffffffffffffffffffffffff1614612285576040517f08c379a000000000000000000000000000000000000000000000000000000000815260040161227c906148c0565b60405180910390fd5b6005600082815260200190815260200160002060006101000a81549073ffffffffffffffffffffffffffffffffffffffff02191690556001600460008573ffffffffffffffffffffffffffffffffffffffff1673ffffffffffffffffffffffffffffffffffffffff168152602001908152602001600020600082825403925050819055506001600460008473ffffffffffffffffffffffffffffffffffffffff1673ffffffffffffffffffffffffffffffffffffffff16815260200190815260200160002060008282540192505081905550816003600083815260200190815260200160002060006101000a81548173ffffffffffffffffffffffffffffffffffffffff021916908373ffffffffffffffffffffffffffffffffffffffff160217905550808273ffffffffffffffffffffffffffffffffffffffff168473ffffffffffffffffffffffffffffffffffffffff167fddf252ad1be2c89b69c2b068fc378daa952ba7f163c4a11628f55a4df523b3ef60405160405180910390a461240f838383612ac6565b505050565b600081836124229190614972565b905092915050565b612444828260405180602001604052806000815250612acb565b5050565b61245182612786565b612490576040517f08c379a000000000000000000000000000000000000000000000000000000000815260040161248790614a3e565b60405180910390fd5b806016600084815260200190815260200160002090805190602001906124b79291906133e1565b505050565b60006003600083815260200190815260200160002060009054906101000a900473ffffffffffffffffffffffffffffffffffffffff169050919050565b60008060009054906101000a900473ffffffffffffffffffffffffffffffffffffffff169050816000806101000a81548173ffffffffffffffffffffffffffffffffffffffff021916908373ffffffffffffffffffffffffffffffffffffffff1602179055508173ffffffffffffffffffffffffffffffffffffffff168173ffffffffffffffffffffffffffffffffffffffff167f8be0079c531659141344cd1fd0a4f28419497f9722a3daafe3b4186f6b6457e060405160405180910390a35050565b8173ffffffffffffffffffffffffffffffffffffffff168373ffffffffffffffffffffffffffffffffffffffff16141561262c576040517f08c379a000000000000000000000000000000000000000000000000000000000815260040161262390614aaa565b60405180910390fd5b80600660008573ffffffffffffffffffffffffffffffffffffffff1673ffffffffffffffffffffffffffffffffffffffff16815260200190815260200160002060008473ffffffffffffffffffffffffffffffffffffffff1673ffffffffffffffffffffffffffffffffffffffff16815260200190815260200160002060006101000a81548160ff0219169083151502179055508173ffffffffffffffffffffffffffffffffffffffff168373ffffffffffffffffffffffffffffffffffffffff167f17307eab39ab6107e8899845ad3d59bd9653f200f220920489ca2b5937696c318360405161271d9190613538565b60405180910390a3505050565b61273584848461211e565b61274184848484612b26565b612780576040517f08c379a000000000000000000000000000000000000000000000000000000000815260040161277790614b3c565b60405180910390fd5b50505050565b60008073ffffffffffffffffffffffffffffffffffffffff166127a8836124bc565b73ffffffffffffffffffffffffffffffffffffffff1614159050919050565b6060601280546127d690613cfa565b80601f016020809104026020016040519081016040528092919081815260200182805461280290613cfa565b801561284f5780601f106128245761010080835404028352916020019161284f565b820191906000526020600020905b81548152906001019060200180831161283257829003601f168201915b5050505050905090565b60606000600161286884612cae565b01905060008167ffffffffffffffff81111561288757612886613850565b5b6040519080825280601f01601f1916602001820160405280156128b95781602001600182028036833780820191505090505b509050600082602001820190505b600115612926578080600190039150507f3031323334353637383961626364656600000000000000000000000000000000600a86061a8153600a85816129105761290f614b5c565b5b049450600085141561292157612926565b6128c7565b819350505050919050565b60008261293e8584612e01565b1490509392505050565b60007f01ffc9a7000000000000000000000000000000000000000000000000000000007bffffffffffffffffffffffffffffffffffffffffffffffffffffffff1916827bffffffffffffffffffffffffffffffffffffffffffffffffffffffff1916149050919050565b6129bd838383612e57565b600073ffffffffffffffffffffffffffffffffffffffff168373ffffffffffffffffffffffffffffffffffffffff161415612a00576129fb81612e5c565b612a3f565b8173ffffffffffffffffffffffffffffffffffffffff168373ffffffffffffffffffffffffffffffffffffffff1614612a3e57612a3d8382612ea5565b5b5b600073ffffffffffffffffffffffffffffffffffffffff168273ffffffffffffffffffffffffffffffffffffffff161415612a8257612a7d81613012565b612ac1565b8273ffffffffffffffffffffffffffffffffffffffff168273ffffffffffffffffffffffffffffffffffffffff1614612ac057612abf82826130e3565b5b5b505050565b505050565b612ad58383613162565b612ae26000848484612b26565b612b21576040517f08c379a0000000000000000000000000000000000000000000000000000000008152600401612b1890614b3c565b60405180910390fd5b505050565b6000612b478473ffffffffffffffffffffffffffffffffffffffff1661337c565b15612ca1578373ffffffffffffffffffffffffffffffffffffffff1663150b7a02612b70611f4a565b8786866040518563ffffffff1660e01b8152600401612b929493929190614be0565b6020604051808303816000875af1925050508015612bce57506040513d601f19601f82011682018060405250810190612bcb9190614c41565b60015b612c51573d8060008114612bfe576040519150601f19603f3d011682016040523d82523d6000602084013e612c03565b606091505b50600081511415612c49576040517f08c379a0000000000000000000000000000000000000000000000000000000008152600401612c4090614b3c565b60405180910390fd5b805181602001fd5b63150b7a0260e01b7bffffffffffffffffffffffffffffffffffffffffffffffffffffffff1916817bffffffffffffffffffffffffffffffffffffffffffffffffffffffff191614915050612ca6565b600190505b949350505050565b600080600090507a184f03e93ff9f4daa797ed6e38ed64bf6a1f0100000000000000008310612d0c577a184f03e93ff9f4daa797ed6e38ed64bf6a1f0100000000000000008381612d0257612d01614b5c565b5b0492506040810190505b6d04ee2d6d415b85acef81000000008310612d49576d04ee2d6d415b85acef81000000008381612d3f57612d3e614b5c565b5b0492506020810190505b662386f26fc100008310612d7857662386f26fc100008381612d6e57612d6d614b5c565b5b0492506010810190505b6305f5e1008310612da1576305f5e1008381612d9757612d96614b5c565b5b0492506008810190505b6127108310612dc6576127108381612dbc57612dbb614b5c565b5b0492506004810190505b60648310612de95760648381612ddf57612dde614b5c565b5b0492506002810190505b600a8310612df8576001810190505b80915050919050565b60008082905060005b8451811015612e4c57612e3782868381518110612e2a57612e29614316565b5b602002602001015161339f565b91508080612e44906141a9565b915050612e0a565b508091505092915050565b505050565b600980549050600a600083815260200190815260200160002081905550600981908060018154018082558091505060019003906000526020600020016000909190919091505550565b60006001612eb284611626565b612ebc9190614c6e565b9050600060086000848152602001908152602001600020549050818114612fa1576000600760008673ffffffffffffffffffffffffffffffffffffffff1673ffffffffffffffffffffffffffffffffffffffff168152602001908152602001600020600084815260200190815260200160002054905080600760008773ffffffffffffffffffffffffffffffffffffffff1673ffffffffffffffffffffffffffffffffffffffff168152602001908152602001600020600084815260200190815260200160002081905550816008600083815260200190815260200160002081905550505b6008600084815260200190815260200160002060009055600760008573ffffffffffffffffffffffffffffffffffffffff1673ffffffffffffffffffffffffffffffffffffffff16815260200190815260200160002060008381526020019081526020016000206000905550505050565b600060016009805490506130269190614c6e565b90506000600a600084815260200190815260200160002054905060006009838154811061305657613055614316565b5b90600052602060002001549050806009838154811061307857613077614316565b5b906000526020600020018190555081600a600083815260200190815260200160002081905550600a60008581526020019081526020016000206000905560098054806130c7576130c6614ca2565b5b6001900381819060005260206000200160009055905550505050565b60006130ee83611626565b905081600760008573ffffffffffffffffffffffffffffffffffffffff1673ffffffffffffffffffffffffffffffffffffffff168152602001908152602001600020600083815260200190815260200160002081905550806008600084815260200190815260200160002081905550505050565b600073ffffffffffffffffffffffffffffffffffffffff168273ffffffffffffffffffffffffffffffffffffffff1614156131d2576040517f08c379a00000000000000000000000000000000000000000000000000000000081526004016131c990614d1d565b60405180910390fd5b6131db81612786565b1561321b576040517f08c379a000000000000000000000000000000000000000000000000000000000815260040161321290614d89565b60405180910390fd5b613227600083836129b2565b61323081612786565b15613270576040517f08c379a000000000000000000000000000000000000000000000000000000000815260040161326790614d89565b60405180910390fd5b6001600460008473ffffffffffffffffffffffffffffffffffffffff1673ffffffffffffffffffffffffffffffffffffffff16815260200190815260200160002060008282540192505081905550816003600083815260200190815260200160002060006101000a81548173ffffffffffffffffffffffffffffffffffffffff021916908373ffffffffffffffffffffffffffffffffffffffff160217905550808273ffffffffffffffffffffffffffffffffffffffff16600073ffffffffffffffffffffffffffffffffffffffff167fddf252ad1be2c89b69c2b068fc378daa952ba7f163c4a11628f55a4df523b3ef60405160405180910390a461337860008383612ac6565b5050565b6000808273ffffffffffffffffffffffffffffffffffffffff163b119050919050565b60008183106133b7576133b282846133ca565b6133c2565b6133c183836133ca565b5b905092915050565b600082600052816020526040600020905092915050565b8280546133ed90613cfa565b90600052602060002090601f01602090048101928261340f5760008555613456565b82601f1061342857805160ff1916838001178555613456565b82800160010185558215613456579182015b8281111561345557825182559160200191906001019061343a565b5b5090506134639190613467565b5090565b5b80821115613480576000816000905550600101613468565b5090565b6000604051905090565b600080fd5b600080fd5b60007fffffffff0000000000000000000000000000000000000000000000000000000082169050919050565b6134cd81613498565b81146134d857600080fd5b50565b6000813590506134ea816134c4565b92915050565b6000602082840312156135065761350561348e565b5b6000613514848285016134db565b91505092915050565b60008115159050919050565b6135328161351d565b82525050565b600060208201905061354d6000830184613529565b92915050565b600081519050919050565b600082825260208201905092915050565b60005b8381101561358d578082015181840152602081019050613572565b8381111561359c576000848401525b50505050565b6000601f19601f8301169050919050565b60006135be82613553565b6135c8818561355e565b93506135d881856020860161356f565b6135e1816135a2565b840191505092915050565b6000602082019050818103600083015261360681846135b3565b905092915050565b6000819050919050565b6136218161360e565b811461362c57600080fd5b50565b60008135905061363e81613618565b92915050565b60006020828403121561365a5761365961348e565b5b60006136688482850161362f565b91505092915050565b600073ffffffffffffffffffffffffffffffffffffffff82169050919050565b600061369c82613671565b9050919050565b6136ac81613691565b82525050565b60006020820190506136c760008301846136a3565b92915050565b6136d681613691565b81146136e157600080fd5b50565b6000813590506136f3816136cd565b92915050565b600080604083850312156137105761370f61348e565b5b600061371e858286016136e4565b925050602061372f8582860161362f565b9150509250929050565b6137428161360e565b82525050565b600060208201905061375d6000830184613739565b92915050565b60008060006060848603121561377c5761377b61348e565b5b600061378a868287016136e4565b935050602061379b868287016136e4565b92505060406137ac8682870161362f565b9150509250925092565b6000819050919050565b6137c9816137b6565b81146137d457600080fd5b50565b6000813590506137e6816137c0565b92915050565b6000602082840312156138025761380161348e565b5b6000613810848285016137d7565b91505092915050565b60006020828403121561382f5761382e61348e565b5b600061383d848285016136e4565b91505092915050565b600080fd5b600080fd5b7f4e487b7100000000000000000000000000000000000000000000000000000000600052604160045260246000fd5b613888826135a2565b810181811067ffffffffffffffff821117156138a7576138a6613850565b5b80604052505050565b60006138ba613484565b90506138c6828261387f565b919050565b600067ffffffffffffffff8211156138e6576138e5613850565b5b6138ef826135a2565b9050602081019050919050565b82818337600083830152505050565b600061391e613919846138cb565b6138b0565b90508281526020810184848401111561393a5761393961384b565b5b6139458482856138fc565b509392505050565b600082601f83011261396257613961613846565b5b813561397284826020860161390b565b91505092915050565b6000602082840312156139915761399061348e565b5b600082013567ffffffffffffffff8111156139af576139ae613493565b5b6139bb8482850161394d565b91505092915050565b600080fd5b600080fd5b60008083601f8401126139e4576139e3613846565b5b8235905067ffffffffffffffff811115613a0157613a006139c4565b5b602083019150836020820283011115613a1d57613a1c6139c9565b5b9250929050565b600080600060408486031215613a3d57613a3c61348e565b5b6000613a4b8682870161362f565b935050602084013567ffffffffffffffff811115613a6c57613a6b613493565b5b613a78868287016139ce565b92509250509250925092565b613a8d8161351d565b8114613a9857600080fd5b50565b600081359050613aaa81613a84565b92915050565b60008060408385031215613ac757613ac661348e565b5b6000613ad5858286016136e4565b9250506020613ae685828601613a9b565b9150509250929050565b600067ffffffffffffffff821115613b0b57613b0a613850565b5b613b14826135a2565b9050602081019050919050565b6000613b34613b2f84613af0565b6138b0565b905082815260208101848484011115613b5057613b4f61384b565b5b613b5b8482856138fc565b509392505050565b600082601f830112613b7857613b77613846565b5b8135613b88848260208601613b21565b91505092915050565b60008060008060808587031215613bab57613baa61348e565b5b6000613bb9878288016136e4565b9450506020613bca878288016136e4565b9350506040613bdb8782880161362f565b925050606085013567ffffffffffffffff811115613bfc57613bfb613493565b5b613c0887828801613b63565b91505092959194509250565b60008060208385031215613c2b57613c2a61348e565b5b600083013567ffffffffffffffff811115613c4957613c48613493565b5b613c55858286016139ce565b92509250509250929050565b613c6a816137b6565b82525050565b6000602082019050613c856000830184613c61565b92915050565b60008060408385031215613ca257613ca161348e565b5b6000613cb0858286016136e4565b9250506020613cc1858286016136e4565b9150509250929050565b7f4e487b7100000000000000000000000000000000000000000000000000000000600052602260045260246000fd5b60006002820490506001821680613d1257607f821691505b60208210811415613d2657613d25613ccb565b5b50919050565b7f4552433732313a20617070726f76616c20746f2063757272656e74206f776e6560008201527f7200000000000000000000000000000000000000000000000000000000000000602082015250565b6000613d8860218361355e565b9150613d9382613d2c565b604082019050919050565b60006020820190508181036000830152613db781613d7b565b9050919050565b7f4552433732313a20617070726f76652063616c6c6572206973206e6f7420746f60008201527f6b656e206f776e6572206f7220617070726f76656420666f7220616c6c000000602082015250565b6000613e1a603d8361355e565b9150613e2582613dbe565b604082019050919050565b60006020820190508181036000830152613e4981613e0d565b9050919050565b7f4552433732313a2063616c6c6572206973206e6f7420746f6b656e206f776e6560008201527f72206f7220617070726f76656400000000000000000000000000000000000000602082015250565b6000613eac602d8361355e565b9150613eb782613e50565b604082019050919050565b60006020820190508181036000830152613edb81613e9f565b9050919050565b7f4e6f7420656e6f7567682065746865722073656e740000000000000000000000600082015250565b6000613f1860158361355e565b9150613f2382613ee2565b602082019050919050565b60006020820190508181036000830152613f4781613f0b565b9050919050565b7f4e487b7100000000000000000000000000000000000000000000000000000000600052601160045260246000fd5b6000613f888261360e565b9150613f938361360e565b9250827fffffffffffffffffffffffffffffffffffffffffffffffffffffffffffffffff03821115613fc857613fc7613f4e565b5b828201905092915050565b7f53616c6520776f756c6420657863656564206d617820737570706c7900000000600082015250565b6000614009601c8361355e565b915061401482613fd3565b602082019050919050565b6000602082019050818103600083015261403881613ffc565b9050919050565b7f53616c65206d7573742062652061637469766520746f206d696e74204e69634d60008201527f6574617300000000000000000000000000000000000000000000000000000000602082015250565b600061409b60248361355e565b91506140a68261403f565b604082019050919050565b600060208201905081810360008301526140ca8161408e565b9050919050565b7f53616c6520776f756c6420657863656564206d61782062616c616e6365000000600082015250565b6000614107601d8361355e565b9150614112826140d1565b602082019050919050565b60006020820190508181036000830152614136816140fa565b9050919050565b7f657863656564206d6178206d696e7420617420612074696d6500000000000000600082015250565b600061417360198361355e565b915061417e8261413d565b602082019050919050565b600060208201905081810360008301526141a281614166565b9050919050565b60006141b48261360e565b91507fffffffffffffffffffffffffffffffffffffffffffffffffffffffffffffffff8214156141e7576141e6613f4e565b5b600182019050919050565b7f455243373231456e756d657261626c653a206f776e657220696e646578206f7560008201527f74206f6620626f756e6473000000000000000000000000000000000000000000602082015250565b600061424e602b8361355e565b9150614259826141f2565b604082019050919050565b6000602082019050818103600083015261427d81614241565b9050919050565b7f455243373231456e756d657261626c653a20676c6f62616c20696e646578206f60008201527f7574206f6620626f756e64730000000000000000000000000000000000000000602082015250565b60006142e0602c8361355e565b91506142eb82614284565b604082019050919050565b6000602082019050818103600083015261430f816142d3565b9050919050565b7f4e487b7100000000000000000000000000000000000000000000000000000000600052603260045260246000fd5b7f6d73672e73656e646572206973206e6f7420696e2077686974656c6973740000600082015250565b600061437b601e8361355e565b915061438682614345565b602082019050919050565b600060208201905081810360008301526143aa8161436e565b9050919050565b7f4552433732313a20696e76616c696420746f6b656e2049440000000000000000600082015250565b60006143e760188361355e565b91506143f2826143b1565b602082019050919050565b60006020820190508181036000830152614416816143da565b9050919050565b7f4552433732313a2061646472657373207a65726f206973206e6f74206120766160008201527f6c6964206f776e65720000000000000000000000000000000000000000000000602082015250565b600061447960298361355e565b91506144848261441d565b604082019050919050565b600060208201905081810360008301526144a88161446c565b9050919050565b7f4552433732314d657461646174613a2055524920717565727920666f72206e6f60008201527f6e6578697374656e7420746f6b656e0000000000000000000000000000000000602082015250565b600061450b602f8361355e565b9150614516826144af565b604082019050919050565b6000602082019050818103600083015261453a816144fe565b9050919050565b600081905092915050565b600061455782613553565b6145618185614541565b935061457181856020860161356f565b80840191505092915050565b7f2f00000000000000000000000000000000000000000000000000000000000000600082015250565b60006145b3600183614541565b91506145be8261457d565b600182019050919050565b60008190508160005260206000209050919050565b600081546145eb81613cfa565b6145f58186614541565b94506001821660008114614610576001811461462157614654565b60ff19831686528186019350614654565b61462a856145c9565b60005b8381101561464c5781548189015260018201915060208101905061462d565b838801955050505b50505092915050565b6000614669828761454c565b9150614674826145a6565b9150614680828661454c565b915061468b826145a6565b9150614697828561454c565b91506146a382846145de565b915081905095945050505050565b60006146bd828661454c565b91506146c8826145a6565b91506146d4828561454c565b91506146e082846145de565b9150819050949350505050565b60008160601b9050919050565b6000614705826146ed565b9050919050565b6000614717826146fa565b9050919050565b61472f61472a82613691565b61470c565b82525050565b6000614741828461471e565b60148201915081905092915050565b7f4f776e61626c653a206e6577206f776e657220697320746865207a65726f206160008201527f6464726573730000000000000000000000000000000000000000000000000000602082015250565b60006147ac60268361355e565b91506147b782614750565b604082019050919050565b600060208201905081810360008301526147db8161479f565b9050919050565b7f4f776e61626c653a2063616c6c6572206973206e6f7420746865206f776e6572600082015250565b600061481860208361355e565b9150614823826147e2565b602082019050919050565b600060208201905081810360008301526148478161480b565b9050919050565b7f4552433732313a207472616e736665722066726f6d20696e636f72726563742060008201527f6f776e6572000000000000000000000000000000000000000000000000000000602082015250565b60006148aa60258361355e565b91506148b58261484e565b604082019050919050565b600060208201905081810360008301526148d98161489d565b9050919050565b7f4552433732313a207472616e7366657220746f20746865207a65726f2061646460008201527f7265737300000000000000000000000000000000000000000000000000000000602082015250565b600061493c60248361355e565b9150614947826148e0565b604082019050919050565b6000602082019050818103600083015261496b8161492f565b9050919050565b600061497d8261360e565b91506149888361360e565b9250817fffffffffffffffffffffffffffffffffffffffffffffffffffffffffffffffff04831182151516156149c1576149c0613f4e565b5b828202905092915050565b7f4552433732314d657461646174613a2055524920736574206f66206e6f6e657860008201527f697374656e7420746f6b656e0000000000000000000000000000000000000000602082015250565b6000614a28602c8361355e565b9150614a33826149cc565b604082019050919050565b60006020820190508181036000830152614a5781614a1b565b9050919050565b7f4552433732313a20617070726f766520746f2063616c6c657200000000000000600082015250565b6000614a9460198361355e565b9150614a9f82614a5e565b602082019050919050565b60006020820190508181036000830152614ac381614a87565b9050919050565b7f4552433732313a207472616e7366657220746f206e6f6e20455243373231526560008201527f63656976657220696d706c656d656e7465720000000000000000000000000000602082015250565b6000614b2660328361355e565b9150614b3182614aca565b604082019050919050565b60006020820190508181036000830152614b5581614b19565b9050919050565b7f4e487b7100000000000000000000000000000000000000000000000000000000600052601260045260246000fd5b600081519050919050565b600082825260208201905092915050565b6000614bb282614b8b565b614bbc8185614b96565b9350614bcc81856020860161356f565b614bd5816135a2565b840191505092915050565b6000608082019050614bf560008301876136a3565b614c0260208301866136a3565b614c0f6040830185613739565b8181036060830152614c218184614ba7565b905095945050505050565b600081519050614c3b816134c4565b92915050565b600060208284031215614c5757614c5661348e565b5b6000614c6584828501614c2c565b91505092915050565b6000614c798261360e565b9150614c848361360e565b925082821015614c9757614c96613f4e565b5b828203905092915050565b7f4e487b7100000000000000000000000000000000000000000000000000000000600052603160045260246000fd5b7f4552433732313a206d696e7420746f20746865207a65726f2061646472657373600082015250565b6000614d0760208361355e565b9150614d1282614cd1565b602082019050919050565b60006020820190508181036000830152614d3681614cfa565b9050919050565b7f4552433732313a20746f6b656e20616c7265616479206d696e74656400000000600082015250565b6000614d73601c8361355e565b9150614d7e82614d3d565b602082019050919050565b60006020820190508181036000830152614da281614d66565b905091905056fea2646970667358221220a5a867a768c147a4b6026b3d14072fd48ffb1457ce6071a00dd58117b7fee03464736f6c634300080a0033697066733a2f2f516d544b795369687352394252557a736657584b74334c654d436231425378704c516a6e644a4c6869456538706b697066733a2f2f516d527a556b375367556755393238476b594665357965724c517a566b6531415678396a68696d417a6942634155",
  "linkReferences": {},
  "deployedLinkReferences": {}
}