{
  "_format": "hh-sol-artifact-1",
  "contractName": "TripNFT",
  "sourceName": "contracts/TripNFT.sol",
  "abi": [
    {
      "inputs": [],
      "stateMutability": "nonpayable",
      "type": "constructor"
    },
    {
      "anonymous": false,
      "inputs": [
        {
          "indexed": true,
          "internalType": "address",
          "name": "owner",
          "type": "address"
        },
        {
          "indexed": true,
          "internalType": "address",
          "name": "approved",
          "type": "address"
        },
        {
          "indexed": true,
          "internalType": "uint256",
          "name": "tokenId",
          "type": "uint256"
        }
      ],
      "name": "Approval",
      "type": "event"
    },
    {
      "anonymous": false,
      "inputs": [
        {
          "indexed": true,
          "internalType": "address",
          "name": "owner",
          "type": "address"
        },
        {
          "indexed": true,
          "internalType": "address",
          "name": "operator",
          "type": "address"
        },
        {
          "indexed": false,
          "internalType": "bool",
          "name": "approved",
          "type": "bool"
        }
      ],
      "name": "ApprovalForAll",
      "type": "event"
    },
    {
      "anonymous": false,
      "inputs": [
        {
          "indexed": true,
          "internalType": "address",
          "name": "previousOwner",
          "type": "address"
        },
        {
          "indexed": true,
          "internalType": "address",
          "name": "newOwner",
          "type": "address"
        }
      ],
      "name": "OwnershipTransferred",
      "type": "event"
    },
    {
      "anonymous": false,
      "inputs": [
        {
          "indexed": true,
          "internalType": "address",
          "name": "from",
          "type": "address"
        },
        {
          "indexed": true,
          "internalType": "address",
          "name": "to",
          "type": "address"
        },
        {
          "indexed": true,
          "internalType": "uint256",
          "name": "tokenId",
          "type": "uint256"
        }
      ],
      "name": "Transfer",
      "type": "event"
    },
    {
      "stateMutability": "payable",
      "type": "fallback"
    },
    {
      "inputs": [],
      "name": "BOX_SUPPLY",
      "outputs": [
        {
          "internalType": "uint256",
          "name": "",
          "type": "uint256"
        }
      ],
      "stateMutability": "view",
      "type": "function"
    },
    {
      "inputs": [],
      "name": "MAX_SUPPLY",
      "outputs": [
        {
          "internalType": "uint256",
          "name": "",
          "type": "uint256"
        }
      ],
      "stateMutability": "view",
      "type": "function"
    },
    {
      "inputs": [
        {
          "internalType": "address",
          "name": "to",
          "type": "address"
        },
        {
          "internalType": "uint256",
          "name": "tokenId",
          "type": "uint256"
        }
      ],
      "name": "approve",
      "outputs": [],
      "stateMutability": "nonpayable",
      "type": "function"
    },
    {
      "inputs": [
        {
          "internalType": "address",
          "name": "owner",
          "type": "address"
        }
      ],
      "name": "balanceOf",
      "outputs": [
        {
          "internalType": "uint256",
          "name": "",
          "type": "uint256"
        }
      ],
      "stateMutability": "view",
      "type": "function"
    },
    {
      "inputs": [],
      "name": "baseExtension",
      "outputs": [
        {
          "internalType": "string",
          "name": "",
          "type": "string"
        }
      ],
      "stateMutability": "view",
      "type": "function"
    },
    {
      "inputs": [],
      "name": "baseURI",
      "outputs": [
        {
          "internalType": "string",
          "name": "",
          "type": "string"
        }
      ],
      "stateMutability": "view",
      "type": "function"
    },
    {
      "inputs": [],
      "name": "flipReveal",
      "outputs": [],
      "stateMutability": "nonpayable",
      "type": "function"
    },
    {
      "inputs": [],
      "name": "flipSaleActive",
      "outputs": [],
      "stateMutability": "nonpayable",
      "type": "function"
    },
    {
      "inputs": [
        {
          "internalType": "uint256",
          "name": "tokenId",
          "type": "uint256"
        }
      ],
      "name": "getApproved",
      "outputs": [
        {
          "internalType": "address",
          "name": "",
          "type": "address"
        }
      ],
      "stateMutability": "view",
      "type": "function"
    },
    {
      "inputs": [
        {
          "internalType": "address",
          "name": "owner",
          "type": "address"
        },
        {
          "internalType": "address",
          "name": "operator",
          "type": "address"
        }
      ],
      "name": "isApprovedForAll",
      "outputs": [
        {
          "internalType": "bool",
          "name": "",
          "type": "bool"
        }
      ],
      "stateMutability": "view",
      "type": "function"
    },
    {
      "inputs": [
        {
          "internalType": "bytes32[]",
          "name": "merkleProof",
          "type": "bytes32[]"
        }
      ],
      "name": "isValidUser",
      "outputs": [
        {
          "internalType": "bool",
          "name": "",
          "type": "bool"
        }
      ],
      "stateMutability": "view",
      "type": "function"
    },
    {
      "inputs": [],
      "name": "maxBalance",
      "outputs": [
        {
          "internalType": "uint256",
          "name": "",
          "type": "uint256"
        }
      ],
      "stateMutability": "view",
      "type": "function"
    },
    {
      "inputs": [],
      "name": "maxMint",
      "outputs": [
        {
          "internalType": "uint256",
          "name": "",
          "type": "uint256"
        }
      ],
      "stateMutability": "view",
      "type": "function"
    },
    {
      "inputs": [],
      "name": "merkleRootHash",
      "outputs": [
        {
          "internalType": "bytes32",
          "name": "",
          "type": "bytes32"
        }
      ],
      "stateMutability": "view",
      "type": "function"
    },
    {
      "inputs": [],
      "name": "mintPrice",
      "outputs": [
        {
          "internalType": "uint256",
          "name": "",
          "type": "uint256"
        }
      ],
      "stateMutability": "view",
      "type": "function"
    },
    {
      "inputs": [],
      "name": "name",
      "outputs": [
        {
          "internalType": "string",
          "name": "",
          "type": "string"
        }
      ],
      "stateMutability": "view",
      "type": "function"
    },
    {
      "inputs": [],
      "name": "owner",
      "outputs": [
        {
          "internalType": "address",
          "name": "",
          "type": "address"
        }
      ],
      "stateMutability": "view",
      "type": "function"
    },
    {
      "inputs": [
        {
          "internalType": "uint256",
          "name": "tokenId",
          "type": "uint256"
        }
      ],
      "name": "ownerOf",
      "outputs": [
        {
          "internalType": "address",
          "name": "",
          "type": "address"
        }
      ],
      "stateMutability": "view",
      "type": "function"
    },
    {
      "inputs": [
        {
          "internalType": "uint256",
          "name": "numberOfTokens",
          "type": "uint256"
        },
        {
          "internalType": "bytes32[]",
          "name": "merkleProof",
          "type": "bytes32[]"
        }
      ],
      "name": "preMint",
      "outputs": [],
      "stateMutability": "payable",
      "type": "function"
    },
    {
      "inputs": [
        {
          "internalType": "uint256",
          "name": "numberOfTokens",
          "type": "uint256"
        }
      ],
      "name": "publicMint",
      "outputs": [],
      "stateMutability": "payable",
      "type": "function"
    },
    {
      "inputs": [],
      "name": "renounceOwnership",
      "outputs": [],
      "stateMutability": "nonpayable",
      "type": "function"
    },
    {
      "inputs": [],
      "name": "reserveNFT",
      "outputs": [],
      "stateMutability": "nonpayable",
      "type": "function"
    },
    {
      "inputs": [],
      "name": "reserveSpecialNFT",
      "outputs": [],
      "stateMutability": "nonpayable",
      "type": "function"
    },
    {
      "inputs": [],
      "name": "revealedState",
      "outputs": [
        {
          "internalType": "bool",
          "name": "",
          "type": "bool"
        }
      ],
      "stateMutability": "view",
      "type": "function"
    },
    {
      "inputs": [
        {
          "internalType": "address",
          "name": "from",
          "type": "address"
        },
        {
          "internalType": "address",
          "name": "to",
          "type": "address"
        },
        {
          "internalType": "uint256",
          "name": "tokenId",
          "type": "uint256"
        }
      ],
      "name": "safeTransferFrom",
      "outputs": [],
      "stateMutability": "nonpayable",
      "type": "function"
    },
    {
      "inputs": [
        {
          "internalType": "address",
          "name": "from",
          "type": "address"
        },
        {
          "internalType": "address",
          "name": "to",
          "type": "address"
        },
        {
          "internalType": "uint256",
          "name": "tokenId",
          "type": "uint256"
        },
        {
          "internalType": "bytes",
          "name": "data",
          "type": "bytes"
        }
      ],
      "name": "safeTransferFrom",
      "outputs": [],
      "stateMutability": "nonpayable",
      "type": "function"
    },
    {
      "inputs": [],
      "name": "saleIsActive",
      "outputs": [
        {
          "internalType": "bool",
          "name": "",
          "type": "bool"
        }
      ],
      "stateMutability": "view",
      "type": "function"
    },
    {
      "inputs": [],
      "name": "saleStage",
      "outputs": [
        {
          "internalType": "uint256",
          "name": "",
          "type": "uint256"
        }
      ],
      "stateMutability": "view",
      "type": "function"
    },
    {
      "inputs": [
        {
          "internalType": "address",
          "name": "operator",
          "type": "address"
        },
        {
          "internalType": "bool",
          "name": "approved",
          "type": "bool"
        }
      ],
      "name": "setApprovalForAll",
      "outputs": [],
      "stateMutability": "nonpayable",
      "type": "function"
    },
    {
      "inputs": [
        {
          "internalType": "string",
          "name": "_newBaseExtension",
          "type": "string"
        }
      ],
      "name": "setBaseExtension",
      "outputs": [],
      "stateMutability": "nonpayable",
      "type": "function"
    },
    {
      "inputs": [
        {
          "internalType": "string",
          "name": "_newBaseURI",
          "type": "string"
        }
      ],
      "name": "setBaseURI",
      "outputs": [],
      "stateMutability": "nonpayable",
      "type": "function"
    },
    {
      "inputs": [
        {
          "internalType": "uint256",
          "name": "_maxBalance",
          "type": "uint256"
        }
      ],
      "name": "setMaxBalance",
      "outputs": [],
      "stateMutability": "nonpayable",
      "type": "function"
    },
    {
      "inputs": [
        {
          "internalType": "uint256",
          "name": "_maxMint",
          "type": "uint256"
        }
      ],
      "name": "setMaxMint",
      "outputs": [],
      "stateMutability": "nonpayable",
      "type": "function"
    },
    {
      "inputs": [
        {
          "internalType": "uint256",
          "name": "_mintPrice",
          "type": "uint256"
        }
      ],
      "name": "setMintPrice",
      "outputs": [],
      "stateMutability": "nonpayable",
      "type": "function"
    },
    {
      "inputs": [
        {
          "internalType": "string",
          "name": "_unrevealedURI",
          "type": "string"
        }
      ],
      "name": "setNotRevealedURI",
      "outputs": [],
      "stateMutability": "nonpayable",
      "type": "function"
    },
    {
      "inputs": [
        {
          "internalType": "bytes32",
          "name": "_merkleRootHash",
          "type": "bytes32"
        }
      ],
      "name": "setRootHash",
      "outputs": [],
      "stateMutability": "nonpayable",
      "type": "function"
    },
    {
      "inputs": [
        {
          "internalType": "uint256",
          "name": "_stage",
          "type": "uint256"
        }
      ],
      "name": "setSaleStage",
      "outputs": [],
      "stateMutability": "nonpayable",
      "type": "function"
    },
    {
      "inputs": [],
      "name": "specialURI",
      "outputs": [
        {
          "internalType": "string",
          "name": "",
          "type": "string"
        }
      ],
      "stateMutability": "view",
      "type": "function"
    },
    {
      "inputs": [
        {
          "internalType": "bytes4",
          "name": "interfaceId",
          "type": "bytes4"
        }
      ],
      "name": "supportsInterface",
      "outputs": [
        {
          "internalType": "bool",
          "name": "",
          "type": "bool"
        }
      ],
      "stateMutability": "view",
      "type": "function"
    },
    {
      "inputs": [],
      "name": "symbol",
      "outputs": [
        {
          "internalType": "string",
          "name": "",
          "type": "string"
        }
      ],
      "stateMutability": "view",
      "type": "function"
    },
    {
      "inputs": [
        {
          "internalType": "uint256",
          "name": "index",
          "type": "uint256"
        }
      ],
      "name": "tokenByIndex",
      "outputs": [
        {
          "internalType": "uint256",
          "name": "",
          "type": "uint256"
        }
      ],
      "stateMutability": "view",
      "type": "function"
    },
    {
      "inputs": [
        {
          "internalType": "address",
          "name": "owner",
          "type": "address"
        },
        {
          "internalType": "uint256",
          "name": "index",
          "type": "uint256"
        }
      ],
      "name": "tokenOfOwnerByIndex",
      "outputs": [
        {
          "internalType": "uint256",
          "name": "",
          "type": "uint256"
        }
      ],
      "stateMutability": "view",
      "type": "function"
    },
    {
      "inputs": [
        {
          "internalType": "uint256",
          "name": "tokenId",
          "type": "uint256"
        }
      ],
      "name": "tokenURI",
      "outputs": [
        {
          "internalType": "string",
          "name": "",
          "type": "string"
        }
      ],
      "stateMutability": "view",
      "type": "function"
    },
    {
      "inputs": [],
      "name": "totalSupply",
      "outputs": [
        {
          "internalType": "uint256",
          "name": "",
          "type": "uint256"
        }
      ],
      "stateMutability": "view",
      "type": "function"
    },
    {
      "inputs": [
        {
          "internalType": "address",
          "name": "from",
          "type": "address"
        },
        {
          "internalType": "address",
          "name": "to",
          "type": "address"
        },
        {
          "internalType": "uint256",
          "name": "tokenId",
          "type": "uint256"
        }
      ],
      "name": "transferFrom",
      "outputs": [],
      "stateMutability": "nonpayable",
      "type": "function"
    },
    {
      "inputs": [
        {
          "internalType": "address",
          "name": "newOwner",
          "type": "address"
        }
      ],
      "name": "transferOwnership",
      "outputs": [],
      "stateMutability": "nonpayable",
      "type": "function"
    },
    {
      "inputs": [],
      "name": "unrevealedURI",
      "outputs": [
        {
          "internalType": "string",
          "name": "",
          "type": "string"
        }
      ],
      "stateMutability": "view",
      "type": "function"
    },
    {
      "inputs": [
        {
          "internalType": "address",
          "name": "to",
          "type": "address"
        }
      ],
      "name": "withdrawMoney",
      "outputs": [],
      "stateMutability": "nonpayable",
      "type": "function"
    },
    {
      "stateMutability": "payable",
      "type": "receive"
    }
  ],
  "bytecode": "0x60806040527ffdbb9776475fc02fbd67aded2b6edb467ef1c653380995853a76d68cfa0f72a860001b600b556000600c60006101000a81548160ff0219169083151502179055506000600d556000600e60006101000a81548160ff021916908315150217905550662386f26fc10000600f55600560105560026011556040518060600160405280603581526020016200539c6035913960129080519060200190620000ac92919062000336565b506040518060200160405280600081525060139080519060200190620000d492919062000336565b50604051806060016040528060358152602001620053d160359139601490805190602001906200010692919062000336565b506040518060400160405280600581526020017f2e6a736f6e000000000000000000000000000000000000000000000000000000815250601590805190602001906200015492919062000336565b503480156200016257600080fd5b506040518060400160405280600981526020017f596f75596f754e465400000000000000000000000000000000000000000000008152506040518060400160405280600681526020017f594f55594f550000000000000000000000000000000000000000000000000000815250620001ef620001e36200026a60201b60201c565b6200027260201b60201c565b81600190805190602001906200020792919062000336565b5080600290805190602001906200022092919062000336565b50505033601760006101000a81548173ffffffffffffffffffffffffffffffffffffffff021916908373ffffffffffffffffffffffffffffffffffffffff1602179055506200044b565b600033905090565b60008060009054906101000a900473ffffffffffffffffffffffffffffffffffffffff169050816000806101000a81548173ffffffffffffffffffffffffffffffffffffffff021916908373ffffffffffffffffffffffffffffffffffffffff1602179055508173ffffffffffffffffffffffffffffffffffffffff168173ffffffffffffffffffffffffffffffffffffffff167f8be0079c531659141344cd1fd0a4f28419497f9722a3daafe3b4186f6b6457e060405160405180910390a35050565b828054620003449062000415565b90600052602060002090601f016020900481019282620003685760008555620003b4565b82601f106200038357805160ff1916838001178555620003b4565b82800160010185558215620003b4579182015b82811115620003b357825182559160200191906001019062000396565b5b509050620003c39190620003c7565b5090565b5b80821115620003e2576000816000905550600101620003c8565b5090565b7f4e487b7100000000000000000000000000000000000000000000000000000000600052602260045260246000fd5b600060028204905060018216806200042e57607f821691505b60208210811415620004455762000444620003e6565b5b50919050565b614f41806200045b6000396000f3fe6080604052600436106102975760003560e01c80636c0360eb1161015a578063c6682862116100c1578063e985e9c51161007a578063e985e9c5146109a4578063eb8d2444146109e1578063f2c4ce1e14610a0c578063f2fde38b14610a35578063f4a0a52814610a5e578063fb918da214610a875761029e565b8063c668286214610894578063c87b56dd146108bf578063d26bf52e146108fc578063da3ef23f14610939578063ddb6dfc414610962578063de8b51e11461098d5761029e565b80638da5cb5b116101135780638da5cb5b146107ac57806395d89b41146107d75780639d51d9b714610802578063a22cb4651461082b578063b88d4fde14610854578063c617f4ed1461087d5761029e565b80636c0360eb146106ac5780637035bf18146106d757806370a0823114610702578063715018a61461073f57806373ad468a146107565780637501f741146107815761029e565b80632f971029116101fe5780634f6ccce7116101b75780634f6ccce714610599578063547520fe146105d657806355f804b3146105ff5780635a546223146106285780636352211e146106445780636817c76c146106815761029e565b80632f971029146104c357806332cb6b0c146104ec5780633b84d9c61461051757806342842e0e1461052e57806344845a6f146105575780634aaca86d1461056e5761029e565b806318160ddd1161025057806318160ddd146103c257806319d02fab146103ed57806323b872dd146104185780632d7eae66146104415780632db115441461046a5780632f745c59146104865761029e565b806301ffc9a7146102a057806306fdde03146102dd578063081812fc14610308578063095ea7b3146103455780630c6e543c1461036e57806311f8e678146103995761029e565b3661029e57005b005b3480156102ac57600080fd5b506102c760048036038101906102c2919061357a565b610ab2565b6040516102d491906135c2565b60405180910390f35b3480156102e957600080fd5b506102f2610b2c565b6040516102ff9190613676565b60405180910390f35b34801561031457600080fd5b5061032f600480360381019061032a91906136ce565b610bbe565b60405161033c919061373c565b60405180910390f35b34801561035157600080fd5b5061036c60048036038101906103679190613783565b610c04565b005b34801561037a57600080fd5b50610383610d1c565b60405161039091906137d2565b60405180910390f35b3480156103a557600080fd5b506103c060048036038101906103bb91906136ce565b610d22565b005b3480156103ce57600080fd5b506103d7610d34565b6040516103e491906137d2565b60405180910390f35b3480156103f957600080fd5b50610402610d41565b60405161040f91906135c2565b60405180910390f35b34801561042457600080fd5b5061043f600480360381019061043a91906137ed565b610d54565b005b34801561044d57600080fd5b5061046860048036038101906104639190613876565b610db4565b005b610484600480360381019061047f91906136ce565b610dc6565b005b34801561049257600080fd5b506104ad60048036038101906104a89190613783565b610ff0565b6040516104ba91906137d2565b60405180910390f35b3480156104cf57600080fd5b506104ea60048036038101906104e591906138a3565b611095565b005b3480156104f857600080fd5b506105016110e7565b60405161050e91906137d2565b60405180910390f35b34801561052357600080fd5b5061052c6110ed565b005b34801561053a57600080fd5b50610555600480360381019061055091906137ed565b611121565b005b34801561056357600080fd5b5061056c611141565b005b34801561057a57600080fd5b50610583611237565b60405161059091906137d2565b60405180910390f35b3480156105a557600080fd5b506105c060048036038101906105bb91906136ce565b61123d565b6040516105cd91906137d2565b60405180910390f35b3480156105e257600080fd5b506105fd60048036038101906105f891906136ce565b6112ae565b005b34801561060b57600080fd5b5061062660048036038101906106219190613a05565b6112c0565b005b610642600480360381019061063d9190613aae565b6112e2565b005b34801561065057600080fd5b5061066b600480360381019061066691906136ce565b611507565b604051610678919061373c565b60405180910390f35b34801561068d57600080fd5b5061069661158e565b6040516106a391906137d2565b60405180910390f35b3480156106b857600080fd5b506106c1611594565b6040516106ce9190613676565b60405180910390f35b3480156106e357600080fd5b506106ec611622565b6040516106f99190613676565b60405180910390f35b34801561070e57600080fd5b50610729600480360381019061072491906138a3565b6116b0565b60405161073691906137d2565b60405180910390f35b34801561074b57600080fd5b50610754611768565b005b34801561076257600080fd5b5061076b61177c565b60405161077891906137d2565b60405180910390f35b34801561078d57600080fd5b50610796611782565b6040516107a391906137d2565b60405180910390f35b3480156107b857600080fd5b506107c1611788565b6040516107ce919061373c565b60405180910390f35b3480156107e357600080fd5b506107ec6117b1565b6040516107f99190613676565b60405180910390f35b34801561080e57600080fd5b50610829600480360381019061082491906136ce565b611843565b005b34801561083757600080fd5b50610852600480360381019061084d9190613b3a565b611855565b005b34801561086057600080fd5b5061087b60048036038101906108769190613c1b565b61186b565b005b34801561088957600080fd5b506108926118cd565b005b3480156108a057600080fd5b506108a9611930565b6040516108b69190613676565b60405180910390f35b3480156108cb57600080fd5b506108e660048036038101906108e191906136ce565b6119be565b6040516108f39190613676565b60405180910390f35b34801561090857600080fd5b50610923600480360381019061091e9190613c9e565b611bdb565b60405161093091906135c2565b60405180910390f35b34801561094557600080fd5b50610960600480360381019061095b9190613a05565b611c5e565b005b34801561096e57600080fd5b50610977611c80565b6040516109849190613cfa565b60405180910390f35b34801561099957600080fd5b506109a2611c86565b005b3480156109b057600080fd5b506109cb60048036038101906109c69190613d15565b611cba565b6040516109d891906135c2565b60405180910390f35b3480156109ed57600080fd5b506109f6611d4e565b604051610a0391906135c2565b60405180910390f35b348015610a1857600080fd5b50610a336004803603810190610a2e9190613a05565b611d61565b005b348015610a4157600080fd5b50610a5c6004803603810190610a5791906138a3565b611d83565b005b348015610a6a57600080fd5b50610a856004803603810190610a8091906136ce565b611e07565b005b348015610a9357600080fd5b50610a9c611e19565b604051610aa99190613676565b60405180910390f35b60007f780e9d63000000000000000000000000000000000000000000000000000000007bffffffffffffffffffffffffffffffffffffffffffffffffffffffff1916827bffffffffffffffffffffffffffffffffffffffffffffffffffffffff19161480610b255750610b2482611ea7565b5b9050919050565b606060018054610b3b90613d84565b80601f0160208091040260200160405190810160405280929190818152602001828054610b6790613d84565b8015610bb45780601f10610b8957610100808354040283529160200191610bb4565b820191906000526020600020905b815481529060010190602001808311610b9757829003601f168201915b5050505050905090565b6000610bc982611f89565b6005600083815260200190815260200160002060009054906101000a900473ffffffffffffffffffffffffffffffffffffffff169050919050565b6000610c0f82611507565b90508073ffffffffffffffffffffffffffffffffffffffff168373ffffffffffffffffffffffffffffffffffffffff161415610c80576040517f08c379a0000000000000000000000000000000000000000000000000000000008152600401610c7790613e28565b60405180910390fd5b8073ffffffffffffffffffffffffffffffffffffffff16610c9f611fd4565b73ffffffffffffffffffffffffffffffffffffffff161480610cce5750610ccd81610cc8611fd4565b611cba565b5b610d0d576040517f08c379a0000000000000000000000000000000000000000000000000000000008152600401610d0490613eba565b60405180910390fd5b610d178383611fdc565b505050565b61037081565b610d2a612095565b80600d8190555050565b6000600980549050905090565b600e60009054906101000a900460ff1681565b610d65610d5f611fd4565b82612113565b610da4576040517f08c379a0000000000000000000000000000000000000000000000000000000008152600401610d9b90613f4c565b60405180910390fd5b610daf8383836121a8565b505050565b610dbc612095565b80600b8190555050565b34610ddc600f548361249e90919063ffffffff16565b1115610e1d576040517f08c379a0000000000000000000000000000000000000000000000000000000008152600401610e1490613fb8565b60405180910390fd5b6103e881610e29610d34565b610e339190614007565b1115610e74576040517f08c379a0000000000000000000000000000000000000000000000000000000008152600401610e6b906140a9565b60405180910390fd5b6002600d5414610eb9576040517f08c379a0000000000000000000000000000000000000000000000000000000008152600401610eb090614115565b60405180910390fd5b600c60009054906101000a900460ff16610f08576040517f08c379a0000000000000000000000000000000000000000000000000000000008152600401610eff906141a7565b60405180910390fd5b601054610f14336116b0565b82610f1f9190614007565b1115610f60576040517f08c379a0000000000000000000000000000000000000000000000000000000008152600401610f5790614213565b60405180910390fd5b601154811115610fa5576040517f08c379a0000000000000000000000000000000000000000000000000000000008152600401610f9c9061427f565b60405180910390fd5b60005b81811015610fec576000610fba610d34565b90506103e8610fc7610d34565b1015610fd857610fd733826124b4565b5b508080610fe49061429f565b915050610fa8565b5050565b6000610ffb836116b0565b821061103c576040517f08c379a00000000000000000000000000000000000000000000000000000000081526004016110339061435a565b60405180910390fd5b600760008473ffffffffffffffffffffffffffffffffffffffff1673ffffffffffffffffffffffffffffffffffffffff168152602001908152602001600020600083815260200190815260200160002054905092915050565b61109d612095565b8073ffffffffffffffffffffffffffffffffffffffff166108fc479081150290604051600060405180830381858888f193505050501580156110e3573d6000803e3d6000fd5b5050565b6103e881565b6110f5612095565b600e60009054906101000a900460ff1615600e60006101000a81548160ff021916908315150217905550565b61113c8383836040518060200160405280600081525061186b565b505050565b611149612095565b60006126ac90505b61271081101561123457600081905061118c601760009054906101000a900473ffffffffffffffffffffffffffffffffffffffff16826124b4565b611220816013805461119d90613d84565b80601f01602080910402602001604051908101604052809291908181526020018280546111c990613d84565b80156112165780601f106111eb57610100808354040283529160200191611216565b820191906000526020600020905b8154815290600101906020018083116111f957829003601f168201915b50505050506124d2565b50808061122c9061429f565b915050611151565b50565b600d5481565b6000611247610d34565b8210611288576040517f08c379a000000000000000000000000000000000000000000000000000000000815260040161127f906143ec565b60405180910390fd5b6009828154811061129c5761129b61440c565b5b90600052602060002001549050919050565b6112b6612095565b8060118190555050565b6112c8612095565b80601290805190602001906112de92919061346b565b5050565b600115156112f08383611bdb565b151514611332576040517f08c379a000000000000000000000000000000000000000000000000000000000815260040161132990614487565b60405180910390fd5b6103e88361133e610d34565b6113489190614007565b1115611389576040517f08c379a0000000000000000000000000000000000000000000000000000000008152600401611380906140a9565b60405180910390fd5b6001600d54146113ce576040517f08c379a00000000000000000000000000000000000000000000000000000000081526004016113c5906144f3565b60405180910390fd5b600c60009054906101000a900460ff1661141d576040517f08c379a0000000000000000000000000000000000000000000000000000000008152600401611414906141a7565b60405180910390fd5b6010548361142a336116b0565b6114349190614007565b1115611475576040517f08c379a000000000000000000000000000000000000000000000000000000000815260040161146c90614213565b60405180910390fd5b6011548311156114ba576040517f08c379a00000000000000000000000000000000000000000000000000000000081526004016114b19061427f565b60405180910390fd5b60005b838110156115015760006114cf610d34565b90506103e86114dc610d34565b10156114ed576114ec33826124b4565b5b5080806114f99061429f565b9150506114bd565b50505050565b60008061151383612546565b9050600073ffffffffffffffffffffffffffffffffffffffff168173ffffffffffffffffffffffffffffffffffffffff161415611585576040517f08c379a000000000000000000000000000000000000000000000000000000000815260040161157c9061455f565b60405180910390fd5b80915050919050565b600f5481565b601280546115a190613d84565b80601f01602080910402602001604051908101604052809291908181526020018280546115cd90613d84565b801561161a5780601f106115ef5761010080835404028352916020019161161a565b820191906000526020600020905b8154815290600101906020018083116115fd57829003601f168201915b505050505081565b6014805461162f90613d84565b80601f016020809104026020016040519081016040528092919081815260200182805461165b90613d84565b80156116a85780601f1061167d576101008083540402835291602001916116a8565b820191906000526020600020905b81548152906001019060200180831161168b57829003601f168201915b505050505081565b60008073ffffffffffffffffffffffffffffffffffffffff168273ffffffffffffffffffffffffffffffffffffffff161415611721576040517f08c379a0000000000000000000000000000000000000000000000000000000008152600401611718906145f1565b60405180910390fd5b600460008373ffffffffffffffffffffffffffffffffffffffff1673ffffffffffffffffffffffffffffffffffffffff168152602001908152602001600020549050919050565b611770612095565b61177a6000612583565b565b60105481565b60115481565b60008060009054906101000a900473ffffffffffffffffffffffffffffffffffffffff16905090565b6060600280546117c090613d84565b80601f01602080910402602001604051908101604052809291908181526020018280546117ec90613d84565b80156118395780601f1061180e57610100808354040283529160200191611839565b820191906000526020600020905b81548152906001019060200180831161181c57829003601f168201915b5050505050905090565b61184b612095565b8060108190555050565b611867611860611fd4565b8383612647565b5050565b61187c611876611fd4565b83612113565b6118bb576040517f08c379a00000000000000000000000000000000000000000000000000000000081526004016118b290613f4c565b60405180910390fd5b6118c7848484846127b4565b50505050565b6118d5612095565b60005b603281101561192d5760006118eb610d34565b9050611919601760009054906101000a900473ffffffffffffffffffffffffffffffffffffffff16826124b4565b5080806119259061429f565b9150506118d8565b50565b6015805461193d90613d84565b80601f016020809104026020016040519081016040528092919081815260200182805461196990613d84565b80156119b65780601f1061198b576101008083540402835291602001916119b6565b820191906000526020600020905b81548152906001019060200180831161199957829003601f168201915b505050505081565b60606119c982612810565b611a08576040517f08c379a00000000000000000000000000000000000000000000000000000000081526004016119ff90614683565b60405180910390fd5b60001515600e60009054906101000a900460ff1615151415611ab65760148054611a3190613d84565b80601f0160208091040260200160405190810160405280929190818152602001828054611a5d90613d84565b8015611aaa5780601f10611a7f57610100808354040283529160200191611aaa565b820191906000526020600020905b815481529060010190602001808311611a8d57829003601f168201915b50505050509050611bd6565b6000601660008481526020019081526020016000208054611ad690613d84565b80601f0160208091040260200160405190810160405280929190818152602001828054611b0290613d84565b8015611b4f5780601f10611b2457610100808354040283529160200191611b4f565b820191906000526020600020905b815481529060010190602001808311611b3257829003601f168201915b505050505090506000611b60612851565b9050600082511115611ba4578082611b77866128e3565b6015604051602001611b8c94939291906147bf565b60405160208183030381529060405292505050611bd6565b80611bae856128e3565b6015604051602001611bc293929190614813565b604051602081830303815290604052925050505b919050565b60008033604051602001611bef9190614897565b604051602081830303815290604052805190602001209050611c55848480806020026020016040519081016040528093929190818152602001838360200280828437600081840152601f19601f82011690508083019250505050505050600b54836129bb565b91505092915050565b611c66612095565b8060159080519060200190611c7c92919061346b565b5050565b600b5481565b611c8e612095565b600c60009054906101000a900460ff1615600c60006101000a81548160ff021916908315150217905550565b6000600660008473ffffffffffffffffffffffffffffffffffffffff1673ffffffffffffffffffffffffffffffffffffffff16815260200190815260200160002060008373ffffffffffffffffffffffffffffffffffffffff1673ffffffffffffffffffffffffffffffffffffffff16815260200190815260200160002060009054906101000a900460ff16905092915050565b600c60009054906101000a900460ff1681565b611d69612095565b8060149080519060200190611d7f92919061346b565b5050565b611d8b612095565b600073ffffffffffffffffffffffffffffffffffffffff168173ffffffffffffffffffffffffffffffffffffffff161415611dfb576040517f08c379a0000000000000000000000000000000000000000000000000000000008152600401611df290614924565b60405180910390fd5b611e0481612583565b50565b611e0f612095565b80600f8190555050565b60138054611e2690613d84565b80601f0160208091040260200160405190810160405280929190818152602001828054611e5290613d84565b8015611e9f5780601f10611e7457610100808354040283529160200191611e9f565b820191906000526020600020905b815481529060010190602001808311611e8257829003601f168201915b505050505081565b60007f80ac58cd000000000000000000000000000000000000000000000000000000007bffffffffffffffffffffffffffffffffffffffffffffffffffffffff1916827bffffffffffffffffffffffffffffffffffffffffffffffffffffffff19161480611f7257507f5b5e139f000000000000000000000000000000000000000000000000000000007bffffffffffffffffffffffffffffffffffffffffffffffffffffffff1916827bffffffffffffffffffffffffffffffffffffffffffffffffffffffff1916145b80611f825750611f81826129d2565b5b9050919050565b611f9281612810565b611fd1576040517f08c379a0000000000000000000000000000000000000000000000000000000008152600401611fc89061455f565b60405180910390fd5b50565b600033905090565b816005600083815260200190815260200160002060006101000a81548173ffffffffffffffffffffffffffffffffffffffff021916908373ffffffffffffffffffffffffffffffffffffffff160217905550808273ffffffffffffffffffffffffffffffffffffffff1661204f83611507565b73ffffffffffffffffffffffffffffffffffffffff167f8c5be1e5ebec7d5bd14f71427d1e84f3dd0314c0f7b2291e5b200ac8c7c3b92560405160405180910390a45050565b61209d611fd4565b73ffffffffffffffffffffffffffffffffffffffff166120bb611788565b73ffffffffffffffffffffffffffffffffffffffff1614612111576040517f08c379a000000000000000000000000000000000000000000000000000000000815260040161210890614990565b60405180910390fd5b565b60008061211f83611507565b90508073ffffffffffffffffffffffffffffffffffffffff168473ffffffffffffffffffffffffffffffffffffffff16148061216157506121608185611cba565b5b8061219f57508373ffffffffffffffffffffffffffffffffffffffff1661218784610bbe565b73ffffffffffffffffffffffffffffffffffffffff16145b91505092915050565b8273ffffffffffffffffffffffffffffffffffffffff166121c882611507565b73ffffffffffffffffffffffffffffffffffffffff161461221e576040517f08c379a000000000000000000000000000000000000000000000000000000000815260040161221590614a22565b60405180910390fd5b600073ffffffffffffffffffffffffffffffffffffffff168273ffffffffffffffffffffffffffffffffffffffff16141561228e576040517f08c379a000000000000000000000000000000000000000000000000000000000815260040161228590614ab4565b60405180910390fd5b612299838383612a3c565b8273ffffffffffffffffffffffffffffffffffffffff166122b982611507565b73ffffffffffffffffffffffffffffffffffffffff161461230f576040517f08c379a000000000000000000000000000000000000000000000000000000000815260040161230690614a22565b60405180910390fd5b6005600082815260200190815260200160002060006101000a81549073ffffffffffffffffffffffffffffffffffffffff02191690556001600460008573ffffffffffffffffffffffffffffffffffffffff1673ffffffffffffffffffffffffffffffffffffffff168152602001908152602001600020600082825403925050819055506001600460008473ffffffffffffffffffffffffffffffffffffffff1673ffffffffffffffffffffffffffffffffffffffff16815260200190815260200160002060008282540192505081905550816003600083815260200190815260200160002060006101000a81548173ffffffffffffffffffffffffffffffffffffffff021916908373ffffffffffffffffffffffffffffffffffffffff160217905550808273ffffffffffffffffffffffffffffffffffffffff168473ffffffffffffffffffffffffffffffffffffffff167fddf252ad1be2c89b69c2b068fc378daa952ba7f163c4a11628f55a4df523b3ef60405160405180910390a4612499838383612b50565b505050565b600081836124ac9190614ad4565b905092915050565b6124ce828260405180602001604052806000815250612b55565b5050565b6124db82612810565b61251a576040517f08c379a000000000000000000000000000000000000000000000000000000000815260040161251190614ba0565b60405180910390fd5b8060166000848152602001908152602001600020908051906020019061254192919061346b565b505050565b60006003600083815260200190815260200160002060009054906101000a900473ffffffffffffffffffffffffffffffffffffffff169050919050565b60008060009054906101000a900473ffffffffffffffffffffffffffffffffffffffff169050816000806101000a81548173ffffffffffffffffffffffffffffffffffffffff021916908373ffffffffffffffffffffffffffffffffffffffff1602179055508173ffffffffffffffffffffffffffffffffffffffff168173ffffffffffffffffffffffffffffffffffffffff167f8be0079c531659141344cd1fd0a4f28419497f9722a3daafe3b4186f6b6457e060405160405180910390a35050565b8173ffffffffffffffffffffffffffffffffffffffff168373ffffffffffffffffffffffffffffffffffffffff1614156126b6576040517f08c379a00000000000000000000000000000000000000000000000000000000081526004016126ad90614c0c565b60405180910390fd5b80600660008573ffffffffffffffffffffffffffffffffffffffff1673ffffffffffffffffffffffffffffffffffffffff16815260200190815260200160002060008473ffffffffffffffffffffffffffffffffffffffff1673ffffffffffffffffffffffffffffffffffffffff16815260200190815260200160002060006101000a81548160ff0219169083151502179055508173ffffffffffffffffffffffffffffffffffffffff168373ffffffffffffffffffffffffffffffffffffffff167f17307eab39ab6107e8899845ad3d59bd9653f200f220920489ca2b5937696c31836040516127a791906135c2565b60405180910390a3505050565b6127bf8484846121a8565b6127cb84848484612bb0565b61280a576040517f08c379a000000000000000000000000000000000000000000000000000000000815260040161280190614c9e565b60405180910390fd5b50505050565b60008073ffffffffffffffffffffffffffffffffffffffff1661283283612546565b73ffffffffffffffffffffffffffffffffffffffff1614159050919050565b60606012805461286090613d84565b80601f016020809104026020016040519081016040528092919081815260200182805461288c90613d84565b80156128d95780601f106128ae576101008083540402835291602001916128d9565b820191906000526020600020905b8154815290600101906020018083116128bc57829003601f168201915b5050505050905090565b6060600060016128f284612d38565b01905060008167ffffffffffffffff811115612911576129106138da565b5b6040519080825280601f01601f1916602001820160405280156129435781602001600182028036833780820191505090505b509050600082602001820190505b6001156129b0578080600190039150507f3031323334353637383961626364656600000000000000000000000000000000600a86061a8153600a858161299a57612999614cbe565b5b04945060008514156129ab576129b0565b612951565b819350505050919050565b6000826129c88584612e8b565b1490509392505050565b60007f01ffc9a7000000000000000000000000000000000000000000000000000000007bffffffffffffffffffffffffffffffffffffffffffffffffffffffff1916827bffffffffffffffffffffffffffffffffffffffffffffffffffffffff1916149050919050565b612a47838383612ee1565b600073ffffffffffffffffffffffffffffffffffffffff168373ffffffffffffffffffffffffffffffffffffffff161415612a8a57612a8581612ee6565b612ac9565b8173ffffffffffffffffffffffffffffffffffffffff168373ffffffffffffffffffffffffffffffffffffffff1614612ac857612ac78382612f2f565b5b5b600073ffffffffffffffffffffffffffffffffffffffff168273ffffffffffffffffffffffffffffffffffffffff161415612b0c57612b078161309c565b612b4b565b8273ffffffffffffffffffffffffffffffffffffffff168273ffffffffffffffffffffffffffffffffffffffff1614612b4a57612b49828261316d565b5b5b505050565b505050565b612b5f83836131ec565b612b6c6000848484612bb0565b612bab576040517f08c379a0000000000000000000000000000000000000000000000000000000008152600401612ba290614c9e565b60405180910390fd5b505050565b6000612bd18473ffffffffffffffffffffffffffffffffffffffff16613406565b15612d2b578373ffffffffffffffffffffffffffffffffffffffff1663150b7a02612bfa611fd4565b8786866040518563ffffffff1660e01b8152600401612c1c9493929190614d42565b6020604051808303816000875af1925050508015612c5857506040513d601f19601f82011682018060405250810190612c559190614da3565b60015b612cdb573d8060008114612c88576040519150601f19603f3d011682016040523d82523d6000602084013e612c8d565b606091505b50600081511415612cd3576040517f08c379a0000000000000000000000000000000000000000000000000000000008152600401612cca90614c9e565b60405180910390fd5b805181602001fd5b63150b7a0260e01b7bffffffffffffffffffffffffffffffffffffffffffffffffffffffff1916817bffffffffffffffffffffffffffffffffffffffffffffffffffffffff191614915050612d30565b600190505b949350505050565b600080600090507a184f03e93ff9f4daa797ed6e38ed64bf6a1f0100000000000000008310612d96577a184f03e93ff9f4daa797ed6e38ed64bf6a1f0100000000000000008381612d8c57612d8b614cbe565b5b0492506040810190505b6d04ee2d6d415b85acef81000000008310612dd3576d04ee2d6d415b85acef81000000008381612dc957612dc8614cbe565b5b0492506020810190505b662386f26fc100008310612e0257662386f26fc100008381612df857612df7614cbe565b5b0492506010810190505b6305f5e1008310612e2b576305f5e1008381612e2157612e20614cbe565b5b0492506008810190505b6127108310612e50576127108381612e4657612e45614cbe565b5b0492506004810190505b60648310612e735760648381612e6957612e68614cbe565b5b0492506002810190505b600a8310612e82576001810190505b80915050919050565b60008082905060005b8451811015612ed657612ec182868381518110612eb457612eb361440c565b5b6020026020010151613429565b91508080612ece9061429f565b915050612e94565b508091505092915050565b505050565b600980549050600a600083815260200190815260200160002081905550600981908060018154018082558091505060019003906000526020600020016000909190919091505550565b60006001612f3c846116b0565b612f469190614dd0565b905060006008600084815260200190815260200160002054905081811461302b576000600760008673ffffffffffffffffffffffffffffffffffffffff1673ffffffffffffffffffffffffffffffffffffffff168152602001908152602001600020600084815260200190815260200160002054905080600760008773ffffffffffffffffffffffffffffffffffffffff1673ffffffffffffffffffffffffffffffffffffffff168152602001908152602001600020600084815260200190815260200160002081905550816008600083815260200190815260200160002081905550505b6008600084815260200190815260200160002060009055600760008573ffffffffffffffffffffffffffffffffffffffff1673ffffffffffffffffffffffffffffffffffffffff16815260200190815260200160002060008381526020019081526020016000206000905550505050565b600060016009805490506130b09190614dd0565b90506000600a60008481526020019081526020016000205490506000600983815481106130e0576130df61440c565b5b9060005260206000200154905080600983815481106131025761310161440c565b5b906000526020600020018190555081600a600083815260200190815260200160002081905550600a600085815260200190815260200160002060009055600980548061315157613150614e04565b5b6001900381819060005260206000200160009055905550505050565b6000613178836116b0565b905081600760008573ffffffffffffffffffffffffffffffffffffffff1673ffffffffffffffffffffffffffffffffffffffff168152602001908152602001600020600083815260200190815260200160002081905550806008600084815260200190815260200160002081905550505050565b600073ffffffffffffffffffffffffffffffffffffffff168273ffffffffffffffffffffffffffffffffffffffff16141561325c576040517f08c379a000000000000000000000000000000000000000000000000000000000815260040161325390614e7f565b60405180910390fd5b61326581612810565b156132a5576040517f08c379a000000000000000000000000000000000000000000000000000000000815260040161329c90614eeb565b60405180910390fd5b6132b160008383612a3c565b6132ba81612810565b156132fa576040517f08c379a00000000000000000000000000000000000000000000000000000000081526004016132f190614eeb565b60405180910390fd5b6001600460008473ffffffffffffffffffffffffffffffffffffffff1673ffffffffffffffffffffffffffffffffffffffff16815260200190815260200160002060008282540192505081905550816003600083815260200190815260200160002060006101000a81548173ffffffffffffffffffffffffffffffffffffffff021916908373ffffffffffffffffffffffffffffffffffffffff160217905550808273ffffffffffffffffffffffffffffffffffffffff16600073ffffffffffffffffffffffffffffffffffffffff167fddf252ad1be2c89b69c2b068fc378daa952ba7f163c4a11628f55a4df523b3ef60405160405180910390a461340260008383612b50565b5050565b6000808273ffffffffffffffffffffffffffffffffffffffff163b119050919050565b60008183106134415761343c8284613454565b61344c565b61344b8383613454565b5b905092915050565b600082600052816020526040600020905092915050565b82805461347790613d84565b90600052602060002090601f01602090048101928261349957600085556134e0565b82601f106134b257805160ff19168380011785556134e0565b828001600101855582156134e0579182015b828111156134df5782518255916020019190600101906134c4565b5b5090506134ed91906134f1565b5090565b5b8082111561350a5760008160009055506001016134f2565b5090565b6000604051905090565b600080fd5b600080fd5b60007fffffffff0000000000000000000000000000000000000000000000000000000082169050919050565b61355781613522565b811461356257600080fd5b50565b6000813590506135748161354e565b92915050565b6000602082840312156135905761358f613518565b5b600061359e84828501613565565b91505092915050565b60008115159050919050565b6135bc816135a7565b82525050565b60006020820190506135d760008301846135b3565b92915050565b600081519050919050565b600082825260208201905092915050565b60005b838110156136175780820151818401526020810190506135fc565b83811115613626576000848401525b50505050565b6000601f19601f8301169050919050565b6000613648826135dd565b61365281856135e8565b93506136628185602086016135f9565b61366b8161362c565b840191505092915050565b60006020820190508181036000830152613690818461363d565b905092915050565b6000819050919050565b6136ab81613698565b81146136b657600080fd5b50565b6000813590506136c8816136a2565b92915050565b6000602082840312156136e4576136e3613518565b5b60006136f2848285016136b9565b91505092915050565b600073ffffffffffffffffffffffffffffffffffffffff82169050919050565b6000613726826136fb565b9050919050565b6137368161371b565b82525050565b6000602082019050613751600083018461372d565b92915050565b6137608161371b565b811461376b57600080fd5b50565b60008135905061377d81613757565b92915050565b6000806040838503121561379a57613799613518565b5b60006137a88582860161376e565b92505060206137b9858286016136b9565b9150509250929050565b6137cc81613698565b82525050565b60006020820190506137e760008301846137c3565b92915050565b60008060006060848603121561380657613805613518565b5b60006138148682870161376e565b93505060206138258682870161376e565b9250506040613836868287016136b9565b9150509250925092565b6000819050919050565b61385381613840565b811461385e57600080fd5b50565b6000813590506138708161384a565b92915050565b60006020828403121561388c5761388b613518565b5b600061389a84828501613861565b91505092915050565b6000602082840312156138b9576138b8613518565b5b60006138c78482850161376e565b91505092915050565b600080fd5b600080fd5b7f4e487b7100000000000000000000000000000000000000000000000000000000600052604160045260246000fd5b6139128261362c565b810181811067ffffffffffffffff82111715613931576139306138da565b5b80604052505050565b600061394461350e565b90506139508282613909565b919050565b600067ffffffffffffffff8211156139705761396f6138da565b5b6139798261362c565b9050602081019050919050565b82818337600083830152505050565b60006139a86139a384613955565b61393a565b9050828152602081018484840111156139c4576139c36138d5565b5b6139cf848285613986565b509392505050565b600082601f8301126139ec576139eb6138d0565b5b81356139fc848260208601613995565b91505092915050565b600060208284031215613a1b57613a1a613518565b5b600082013567ffffffffffffffff811115613a3957613a3861351d565b5b613a45848285016139d7565b91505092915050565b600080fd5b600080fd5b60008083601f840112613a6e57613a6d6138d0565b5b8235905067ffffffffffffffff811115613a8b57613a8a613a4e565b5b602083019150836020820283011115613aa757613aa6613a53565b5b9250929050565b600080600060408486031215613ac757613ac6613518565b5b6000613ad5868287016136b9565b935050602084013567ffffffffffffffff811115613af657613af561351d565b5b613b0286828701613a58565b92509250509250925092565b613b17816135a7565b8114613b2257600080fd5b50565b600081359050613b3481613b0e565b92915050565b60008060408385031215613b5157613b50613518565b5b6000613b5f8582860161376e565b9250506020613b7085828601613b25565b9150509250929050565b600067ffffffffffffffff821115613b9557613b946138da565b5b613b9e8261362c565b9050602081019050919050565b6000613bbe613bb984613b7a565b61393a565b905082815260208101848484011115613bda57613bd96138d5565b5b613be5848285613986565b509392505050565b600082601f830112613c0257613c016138d0565b5b8135613c12848260208601613bab565b91505092915050565b60008060008060808587031215613c3557613c34613518565b5b6000613c438782880161376e565b9450506020613c548782880161376e565b9350506040613c65878288016136b9565b925050606085013567ffffffffffffffff811115613c8657613c8561351d565b5b613c9287828801613bed565b91505092959194509250565b60008060208385031215613cb557613cb4613518565b5b600083013567ffffffffffffffff811115613cd357613cd261351d565b5b613cdf85828601613a58565b92509250509250929050565b613cf481613840565b82525050565b6000602082019050613d0f6000830184613ceb565b92915050565b60008060408385031215613d2c57613d2b613518565b5b6000613d3a8582860161376e565b9250506020613d4b8582860161376e565b9150509250929050565b7f4e487b7100000000000000000000000000000000000000000000000000000000600052602260045260246000fd5b60006002820490506001821680613d9c57607f821691505b60208210811415613db057613daf613d55565b5b50919050565b7f4552433732313a20617070726f76616c20746f2063757272656e74206f776e6560008201527f7200000000000000000000000000000000000000000000000000000000000000602082015250565b6000613e126021836135e8565b9150613e1d82613db6565b604082019050919050565b60006020820190508181036000830152613e4181613e05565b9050919050565b7f4552433732313a20617070726f76652063616c6c6572206973206e6f7420746f60008201527f6b656e206f776e6572206f7220617070726f76656420666f7220616c6c000000602082015250565b6000613ea4603d836135e8565b9150613eaf82613e48565b604082019050919050565b60006020820190508181036000830152613ed381613e97565b9050919050565b7f4552433732313a2063616c6c6572206973206e6f7420746f6b656e206f776e6560008201527f72206f7220617070726f76656400000000000000000000000000000000000000602082015250565b6000613f36602d836135e8565b9150613f4182613eda565b604082019050919050565b60006020820190508181036000830152613f6581613f29565b9050919050565b7f4e6f7420656e6f7567682065746865722073656e740000000000000000000000600082015250565b6000613fa26015836135e8565b9150613fad82613f6c565b602082019050919050565b60006020820190508181036000830152613fd181613f95565b9050919050565b7f4e487b7100000000000000000000000000000000000000000000000000000000600052601160045260246000fd5b600061401282613698565b915061401d83613698565b9250827fffffffffffffffffffffffffffffffffffffffffffffffffffffffffffffffff0382111561405257614051613fd8565b5b828201905092915050565b7f53616c6520776f756c6420657863656564206d617820737570706c7900000000600082015250565b6000614093601c836135e8565b915061409e8261405d565b602082019050919050565b600060208201905081810360008301526140c281614086565b9050919050565b7f4e6f7420696e207075626c69634d696e742074696d6500000000000000000000600082015250565b60006140ff6016836135e8565b915061410a826140c9565b602082019050919050565b6000602082019050818103600083015261412e816140f2565b9050919050565b7f53616c65206d7573742062652061637469766520746f206d696e74204e69634d60008201527f6574617300000000000000000000000000000000000000000000000000000000602082015250565b60006141916024836135e8565b915061419c82614135565b604082019050919050565b600060208201905081810360008301526141c081614184565b9050919050565b7f53616c6520776f756c6420657863656564206d61782062616c616e6365000000600082015250565b60006141fd601d836135e8565b9150614208826141c7565b602082019050919050565b6000602082019050818103600083015261422c816141f0565b9050919050565b7f657863656564206d6178206d696e7420617420612074696d6500000000000000600082015250565b60006142696019836135e8565b915061427482614233565b602082019050919050565b600060208201905081810360008301526142988161425c565b9050919050565b60006142aa82613698565b91507fffffffffffffffffffffffffffffffffffffffffffffffffffffffffffffffff8214156142dd576142dc613fd8565b5b600182019050919050565b7f455243373231456e756d657261626c653a206f776e657220696e646578206f7560008201527f74206f6620626f756e6473000000000000000000000000000000000000000000602082015250565b6000614344602b836135e8565b915061434f826142e8565b604082019050919050565b6000602082019050818103600083015261437381614337565b9050919050565b7f455243373231456e756d657261626c653a20676c6f62616c20696e646578206f60008201527f7574206f6620626f756e64730000000000000000000000000000000000000000602082015250565b60006143d6602c836135e8565b91506143e18261437a565b604082019050919050565b60006020820190508181036000830152614405816143c9565b9050919050565b7f4e487b7100000000000000000000000000000000000000000000000000000000600052603260045260246000fd5b7f6d73672e73656e646572206973206e6f7420696e2077686974656c6973740000600082015250565b6000614471601e836135e8565b915061447c8261443b565b602082019050919050565b600060208201905081810360008301526144a081614464565b9050919050565b7f4e6f7420696e207072654d696e742074696d6500000000000000000000000000600082015250565b60006144dd6013836135e8565b91506144e8826144a7565b602082019050919050565b6000602082019050818103600083015261450c816144d0565b9050919050565b7f4552433732313a20696e76616c696420746f6b656e2049440000000000000000600082015250565b60006145496018836135e8565b915061455482614513565b602082019050919050565b600060208201905081810360008301526145788161453c565b9050919050565b7f4552433732313a2061646472657373207a65726f206973206e6f74206120766160008201527f6c6964206f776e65720000000000000000000000000000000000000000000000602082015250565b60006145db6029836135e8565b91506145e68261457f565b604082019050919050565b6000602082019050818103600083015261460a816145ce565b9050919050565b7f4552433732314d657461646174613a2055524920717565727920666f72206e6f60008201527f6e6578697374656e7420746f6b656e0000000000000000000000000000000000602082015250565b600061466d602f836135e8565b915061467882614611565b604082019050919050565b6000602082019050818103600083015261469c81614660565b9050919050565b600081905092915050565b60006146b9826135dd565b6146c381856146a3565b93506146d38185602086016135f9565b80840191505092915050565b7f2f00000000000000000000000000000000000000000000000000000000000000600082015250565b60006147156001836146a3565b9150614720826146df565b600182019050919050565b60008190508160005260206000209050919050565b6000815461474d81613d84565b61475781866146a3565b945060018216600081146147725760018114614783576147b6565b60ff198316865281860193506147b6565b61478c8561472b565b60005b838110156147ae5781548189015260018201915060208101905061478f565b838801955050505b50505092915050565b60006147cb82876146ae565b91506147d682614708565b91506147e282866146ae565b91506147ed82614708565b91506147f982856146ae565b91506148058284614740565b915081905095945050505050565b600061481f82866146ae565b915061482a82614708565b915061483682856146ae565b91506148428284614740565b9150819050949350505050565b60008160601b9050919050565b60006148678261484f565b9050919050565b60006148798261485c565b9050919050565b61489161488c8261371b565b61486e565b82525050565b60006148a38284614880565b60148201915081905092915050565b7f4f776e61626c653a206e6577206f776e657220697320746865207a65726f206160008201527f6464726573730000000000000000000000000000000000000000000000000000602082015250565b600061490e6026836135e8565b9150614919826148b2565b604082019050919050565b6000602082019050818103600083015261493d81614901565b9050919050565b7f4f776e61626c653a2063616c6c6572206973206e6f7420746865206f776e6572600082015250565b600061497a6020836135e8565b915061498582614944565b602082019050919050565b600060208201905081810360008301526149a98161496d565b9050919050565b7f4552433732313a207472616e736665722066726f6d20696e636f72726563742060008201527f6f776e6572000000000000000000000000000000000000000000000000000000602082015250565b6000614a0c6025836135e8565b9150614a17826149b0565b604082019050919050565b60006020820190508181036000830152614a3b816149ff565b9050919050565b7f4552433732313a207472616e7366657220746f20746865207a65726f2061646460008201527f7265737300000000000000000000000000000000000000000000000000000000602082015250565b6000614a9e6024836135e8565b9150614aa982614a42565b604082019050919050565b60006020820190508181036000830152614acd81614a91565b9050919050565b6000614adf82613698565b9150614aea83613698565b9250817fffffffffffffffffffffffffffffffffffffffffffffffffffffffffffffffff0483118215151615614b2357614b22613fd8565b5b828202905092915050565b7f4552433732314d657461646174613a2055524920736574206f66206e6f6e657860008201527f697374656e7420746f6b656e0000000000000000000000000000000000000000602082015250565b6000614b8a602c836135e8565b9150614b9582614b2e565b604082019050919050565b60006020820190508181036000830152614bb981614b7d565b9050919050565b7f4552433732313a20617070726f766520746f2063616c6c657200000000000000600082015250565b6000614bf66019836135e8565b9150614c0182614bc0565b602082019050919050565b60006020820190508181036000830152614c2581614be9565b9050919050565b7f4552433732313a207472616e7366657220746f206e6f6e20455243373231526560008201527f63656976657220696d706c656d656e7465720000000000000000000000000000602082015250565b6000614c886032836135e8565b9150614c9382614c2c565b604082019050919050565b60006020820190508181036000830152614cb781614c7b565b9050919050565b7f4e487b7100000000000000000000000000000000000000000000000000000000600052601260045260246000fd5b600081519050919050565b600082825260208201905092915050565b6000614d1482614ced565b614d1e8185614cf8565b9350614d2e8185602086016135f9565b614d378161362c565b840191505092915050565b6000608082019050614d57600083018761372d565b614d64602083018661372d565b614d7160408301856137c3565b8181036060830152614d838184614d09565b905095945050505050565b600081519050614d9d8161354e565b92915050565b600060208284031215614db957614db8613518565b5b6000614dc784828501614d8e565b91505092915050565b6000614ddb82613698565b9150614de683613698565b925082821015614df957614df8613fd8565b5b828203905092915050565b7f4e487b7100000000000000000000000000000000000000000000000000000000600052603160045260246000fd5b7f4552433732313a206d696e7420746f20746865207a65726f2061646472657373600082015250565b6000614e696020836135e8565b9150614e7482614e33565b602082019050919050565b60006020820190508181036000830152614e9881614e5c565b9050919050565b7f4552433732313a20746f6b656e20616c7265616479206d696e74656400000000600082015250565b6000614ed5601c836135e8565b9150614ee082614e9f565b602082019050919050565b60006020820190508181036000830152614f0481614ec8565b905091905056fea264697066735822122041da81bd5f0a2be62bb8d544ae85a0c2000c62cbbde006033155c625718889f264736f6c634300080a0033697066733a2f2f516d544b795369687352394252557a736657584b74334c654d436231425378704c516a6e644a4c6869456538706b697066733a2f2f516d527a556b375367556755393238476b594665357965724c517a566b6531415678396a68696d417a6942634155",
  "linkReferences": {},
  "deployedLinkReferences": {}
}